{
  "contractName": "ERC721Metadata",
  "abi": [
    {
      "inputs": [
        {
          "internalType": "string",
          "name": "name",
          "type": "string"
        },
        {
          "internalType": "string",
          "name": "symbol",
          "type": "string"
        },
        {
          "internalType": "string",
          "name": "baseTokenURI",
          "type": "string"
        }
      ],
      "stateMutability": "nonpayable",
      "type": "constructor"
    },
    {
      "anonymous": false,
      "inputs": [
        {
          "indexed": true,
          "internalType": "address",
          "name": "owner",
          "type": "address"
        },
        {
          "indexed": true,
          "internalType": "address",
          "name": "approved",
          "type": "address"
        },
        {
          "indexed": true,
          "internalType": "uint256",
          "name": "tokenId",
          "type": "uint256"
        }
      ],
      "name": "Approval",
      "type": "event"
    },
    {
      "anonymous": false,
      "inputs": [
        {
          "indexed": true,
          "internalType": "address",
          "name": "owner",
          "type": "address"
        },
        {
          "indexed": true,
          "internalType": "address",
          "name": "operator",
          "type": "address"
        },
        {
          "indexed": false,
          "internalType": "bool",
          "name": "approved",
          "type": "bool"
        }
      ],
      "name": "ApprovalForAll",
      "type": "event"
    },
    {
      "anonymous": false,
      "inputs": [
        {
          "indexed": true,
          "internalType": "address",
          "name": "previousOwner",
          "type": "address"
        },
        {
          "indexed": true,
          "internalType": "address",
          "name": "newOwner",
          "type": "address"
        }
      ],
      "name": "OwnershipTransfered",
      "type": "event"
    },
    {
      "anonymous": false,
      "inputs": [
        {
          "indexed": true,
          "internalType": "address",
          "name": "account",
          "type": "address"
        }
      ],
      "name": "Paused",
      "type": "event"
    },
    {
      "anonymous": false,
      "inputs": [
        {
          "indexed": true,
          "internalType": "address",
          "name": "from",
          "type": "address"
        },
        {
          "indexed": true,
          "internalType": "address",
          "name": "to",
          "type": "address"
        },
        {
          "indexed": true,
          "internalType": "uint256",
          "name": "tokenId",
          "type": "uint256"
        }
      ],
      "name": "Transfer",
      "type": "event"
    },
    {
      "anonymous": false,
      "inputs": [
        {
          "indexed": true,
          "internalType": "address",
          "name": "account",
          "type": "address"
        }
      ],
      "name": "Unpaused",
      "type": "event"
    },
    {
      "inputs": [
        {
          "internalType": "address",
          "name": "to",
          "type": "address"
        },
        {
          "internalType": "uint256",
          "name": "tokenId",
          "type": "uint256"
        }
      ],
      "name": "approve",
      "outputs": [],
      "stateMutability": "nonpayable",
      "type": "function"
    },
    {
      "inputs": [
        {
          "internalType": "address",
          "name": "owner",
          "type": "address"
        }
      ],
      "name": "balanceOf",
      "outputs": [
        {
          "internalType": "uint256",
          "name": "",
          "type": "uint256"
        }
      ],
      "stateMutability": "view",
      "type": "function"
    },
    {
      "inputs": [
        {
          "internalType": "uint256",
          "name": "tokenId",
          "type": "uint256"
        }
      ],
      "name": "getApproved",
      "outputs": [
        {
          "internalType": "address",
          "name": "",
          "type": "address"
        }
      ],
      "stateMutability": "view",
      "type": "function"
    },
    {
      "inputs": [],
      "name": "getOwner",
      "outputs": [
        {
          "internalType": "address",
          "name": "",
          "type": "address"
        }
      ],
      "stateMutability": "view",
      "type": "function"
    },
    {
      "inputs": [
        {
          "internalType": "address",
          "name": "owner",
          "type": "address"
        },
        {
          "internalType": "address",
          "name": "operator",
          "type": "address"
        }
      ],
      "name": "isApprovedForAll",
      "outputs": [
        {
          "internalType": "bool",
          "name": "",
          "type": "bool"
        }
      ],
      "stateMutability": "view",
      "type": "function"
    },
    {
      "inputs": [
        {
          "internalType": "uint256",
          "name": "tokenId",
          "type": "uint256"
        }
      ],
      "name": "ownerOf",
      "outputs": [
        {
          "internalType": "address",
          "name": "",
          "type": "address"
        }
      ],
      "stateMutability": "view",
      "type": "function"
    },
    {
      "inputs": [
        {
          "internalType": "bool",
          "name": "newState",
          "type": "bool"
        }
      ],
      "name": "pause",
      "outputs": [],
      "stateMutability": "nonpayable",
      "type": "function"
    },
    {
      "inputs": [
        {
          "internalType": "address",
          "name": "from",
          "type": "address"
        },
        {
          "internalType": "address",
          "name": "to",
          "type": "address"
        },
        {
          "internalType": "uint256",
          "name": "tokenId",
          "type": "uint256"
        }
      ],
      "name": "safeTransferFrom",
      "outputs": [],
      "stateMutability": "nonpayable",
      "type": "function"
    },
    {
      "inputs": [
        {
          "internalType": "address",
          "name": "from",
          "type": "address"
        },
        {
          "internalType": "address",
          "name": "to",
          "type": "address"
        },
        {
          "internalType": "uint256",
          "name": "tokenId",
          "type": "uint256"
        },
        {
          "internalType": "bytes",
          "name": "_data",
          "type": "bytes"
        }
      ],
      "name": "safeTransferFrom",
      "outputs": [],
      "stateMutability": "nonpayable",
      "type": "function"
    },
    {
      "inputs": [
        {
          "internalType": "address",
          "name": "to",
          "type": "address"
        },
        {
          "internalType": "bool",
          "name": "approved",
          "type": "bool"
        }
      ],
      "name": "setApprovalForAll",
      "outputs": [],
      "stateMutability": "nonpayable",
      "type": "function"
    },
    {
      "inputs": [
        {
          "internalType": "bytes4",
          "name": "interfaceId",
          "type": "bytes4"
        }
      ],
      "name": "supportsInterface",
      "outputs": [
        {
          "internalType": "bool",
          "name": "",
          "type": "bool"
        }
      ],
      "stateMutability": "view",
      "type": "function"
    },
    {
      "inputs": [
        {
          "internalType": "uint256",
          "name": "index",
          "type": "uint256"
        }
      ],
      "name": "tokenByIndex",
      "outputs": [
        {
          "internalType": "uint256",
          "name": "",
          "type": "uint256"
        }
      ],
      "stateMutability": "view",
      "type": "function"
    },
    {
      "inputs": [
        {
          "internalType": "address",
          "name": "owner",
          "type": "address"
        },
        {
          "internalType": "uint256",
          "name": "index",
          "type": "uint256"
        }
      ],
      "name": "tokenOfOwnerByIndex",
      "outputs": [
        {
          "internalType": "uint256",
          "name": "",
          "type": "uint256"
        }
      ],
      "stateMutability": "view",
      "type": "function"
    },
    {
      "inputs": [],
      "name": "totalSupply",
      "outputs": [
        {
          "internalType": "uint256",
          "name": "",
          "type": "uint256"
        }
      ],
      "stateMutability": "view",
      "type": "function"
    },
    {
      "inputs": [
        {
          "internalType": "address",
          "name": "from",
          "type": "address"
        },
        {
          "internalType": "address",
          "name": "to",
          "type": "address"
        },
        {
          "internalType": "uint256",
          "name": "tokenId",
          "type": "uint256"
        }
      ],
      "name": "transferFrom",
      "outputs": [],
      "stateMutability": "nonpayable",
      "type": "function"
    },
    {
      "inputs": [
        {
          "internalType": "address",
          "name": "newOwner",
          "type": "address"
        }
      ],
      "name": "transferOwnership",
      "outputs": [],
      "stateMutability": "nonpayable",
      "type": "function"
    },
    {
      "inputs": [],
      "name": "unpause",
      "outputs": [],
      "stateMutability": "nonpayable",
      "type": "function"
    },
    {
      "inputs": [
        {
          "internalType": "uint256",
          "name": "tokenId",
          "type": "uint256"
        }
      ],
      "name": "tokenURI",
      "outputs": [
        {
          "internalType": "string",
          "name": "",
          "type": "string"
        }
      ],
      "stateMutability": "view",
      "type": "function"
    },
    {
      "inputs": [],
      "name": "getName",
      "outputs": [
        {
          "internalType": "string",
          "name": "",
          "type": "string"
        }
      ],
      "stateMutability": "view",
      "type": "function"
    },
    {
      "inputs": [],
      "name": "getSymbol",
      "outputs": [
        {
          "internalType": "string",
          "name": "",
          "type": "string"
        }
      ],
      "stateMutability": "view",
      "type": "function"
    },
    {
      "inputs": [],
      "name": "getBaseTokenURI",
      "outputs": [
        {
          "internalType": "string",
          "name": "",
          "type": "string"
        }
      ],
      "stateMutability": "view",
      "type": "function"
    }
  ],
  "bytecode": "0x60806040523480156200001157600080fd5b50604051620027a7380380620027a7833981810160405281019062000037919062000358565b336000806101000a81548173ffffffffffffffffffffffffffffffffffffffff021916908373ffffffffffffffffffffffffffffffffffffffff16021790555060008060146101000a81548160ff021916908315150217905550620000c27f01ffc9a7000000000000000000000000000000000000000000000000000000006200015e60201b60201c565b620000da6380ac58cd60e01b6200015e60201b60201c565b620000f263780e9d6360e01b6200015e60201b60201c565b82600a90805190602001906200010a92919062000236565b5081600b90805190602001906200012392919062000236565b5080600c90805190602001906200013c92919062000236565b5062000155635b5e139f60e01b6200015e60201b60201c565b505050620005ec565b63ffffffff60e01b817bffffffffffffffffffffffffffffffffffffffffffffffffffffffff19161415620001ca576040517f08c379a0000000000000000000000000000000000000000000000000000000008152600401620001c19062000420565b60405180910390fd5b6001806000837bffffffffffffffffffffffffffffffffffffffffffffffffffffffff19167bffffffffffffffffffffffffffffffffffffffffffffffffffffffff1916815260200190815260200160002060006101000a81548160ff02191690831515021790555050565b8280546200024490620004e8565b90600052602060002090601f016020900481019282620002685760008555620002b4565b82601f106200028357805160ff1916838001178555620002b4565b82800160010185558215620002b4579182015b82811115620002b357825182559160200191906001019062000296565b5b509050620002c39190620002c7565b5090565b5b80821115620002e2576000816000905550600101620002c8565b5090565b6000620002fd620002f7846200046b565b62000442565b9050828152602081018484840111156200031657600080fd5b62000323848285620004b2565b509392505050565b600082601f8301126200033d57600080fd5b81516200034f848260208601620002e6565b91505092915050565b6000806000606084860312156200036e57600080fd5b600084015167ffffffffffffffff8111156200038957600080fd5b62000397868287016200032b565b935050602084015167ffffffffffffffff811115620003b557600080fd5b620003c3868287016200032b565b925050604084015167ffffffffffffffff811115620003e157600080fd5b620003ef868287016200032b565b9150509250925092565b600062000408601c83620004a1565b91506200041582620005c3565b602082019050919050565b600060208201905081810360008301526200043b81620003f9565b9050919050565b60006200044e62000461565b90506200045c82826200051e565b919050565b6000604051905090565b600067ffffffffffffffff82111562000489576200048862000583565b5b6200049482620005b2565b9050602081019050919050565b600082825260208201905092915050565b60005b83811015620004d2578082015181840152602081019050620004b5565b83811115620004e2576000848401525b50505050565b600060028204905060018216806200050157607f821691505b6020821081141562000518576200051762000554565b5b50919050565b6200052982620005b2565b810181811067ffffffffffffffff821117156200054b576200054a62000583565b5b80604052505050565b7f4e487b7100000000000000000000000000000000000000000000000000000000600052602260045260246000fd5b7f4e487b7100000000000000000000000000000000000000000000000000000000600052604160045260246000fd5b6000601f19601f8301169050919050565b7f4552433136353a20696e76616c696420696e7465726661636520696400000000600082015250565b6121ab80620005fc6000396000f3fe608060405234801561001057600080fd5b50600436106101375760003560e01c806342842e0e116100b8578063a22cb4651161007c578063a22cb4651461034e578063b88d4fde1461036a578063bdc32be014610386578063c87b56dd146103a4578063e985e9c5146103d4578063f2fde38b1461040457610137565b806342842e0e146102845780634f6ccce7146102a05780636352211e146102d057806370a0823114610300578063893d20e81461033057610137565b806317d7de7c116100ff57806317d7de7c146101f257806318160ddd1461021057806323b872dd1461022e5780632f745c591461024a5780633f4ba83a1461027a57610137565b806301ffc9a71461013c57806302329a291461016c578063081812fc14610188578063095ea7b3146101b857806315070401146101d4575b600080fd5b6101566004803603810190610151919061190b565b610420565b6040516101639190611b81565b60405180910390f35b610186600480360381019061018191906118e2565b610488565b005b6101a2600480360381019061019d919061195d565b610576565b6040516101af9190611b1a565b60405180910390f35b6101d260048036038101906101cd91906118a6565b61057d565b005b6101dc61072a565b6040516101e99190611b9c565b60405180910390f35b6101fa6107bc565b6040516102079190611b9c565b60405180910390f35b61021861084e565b6040516102259190611c9e565b60405180910390f35b610248600480360381019061024391906117a0565b61085b565b005b610264600480360381019061025f91906118a6565b61087e565b6040516102719190611c9e565b60405180910390f35b61028261091e565b005b61029e600480360381019061029991906117a0565b610a61565b005b6102ba60048036038101906102b5919061195d565b610a81565b6040516102c79190611c9e565b60405180910390f35b6102ea60048036038101906102e5919061195d565b610ae2565b6040516102f79190611b1a565b60405180910390f35b61031a6004803603810190610315919061173b565b610ae9565b6040516103279190611c9e565b60405180910390f35b610338610b39565b6040516103459190611b1a565b60405180910390f35b6103686004803603810190610363919061186a565b610b62565b005b610384600480360381019061037f91906117ef565b610c98565b005b61038e610cbe565b60405161039b9190611b9c565b60405180910390f35b6103be60048036038101906103b9919061195d565b610d50565b6040516103cb9190611b9c565b60405180910390f35b6103ee60048036038101906103e99190611764565b610e07565b6040516103fb9190611b81565b60405180910390f35b61041e6004803603810190610419919061173b565b610e9b565b005b600060016000837bffffffffffffffffffffffffffffffffffffffffffffffffffffffff19167bffffffffffffffffffffffffffffffffffffffffffffffffffffffff1916815260200190815260200160002060009054906101000a900460ff169050919050565b60008054906101000a900473ffffffffffffffffffffffffffffffffffffffff1673ffffffffffffffffffffffffffffffffffffffff163373ffffffffffffffffffffffffffffffffffffffff1614610516576040517f08c379a000000000000000000000000000000000000000000000000000000000815260040161050d90611c7e565b60405180910390fd5b80600060146101000a81548160ff0219169083151502179055503373ffffffffffffffffffffffffffffffffffffffff167f62e78cea01bee320cd4e420270b5ea74000d11b0c9f74754ebdbfc544b05a25860405160405180910390a250565b6000919050565b600061058882610ae2565b90508073ffffffffffffffffffffffffffffffffffffffff168373ffffffffffffffffffffffffffffffffffffffff1614156105f9576040517f08c379a00000000000000000000000000000000000000000000000000000000081526004016105f090611c1e565b60405180910390fd5b8073ffffffffffffffffffffffffffffffffffffffff163373ffffffffffffffffffffffffffffffffffffffff16148061063957506106388133610e07565b5b610678576040517f08c379a000000000000000000000000000000000000000000000000000000000815260040161066f90611bde565b60405180910390fd5b826003600084815260200190815260200160002060006101000a81548173ffffffffffffffffffffffffffffffffffffffff021916908373ffffffffffffffffffffffffffffffffffffffff160217905550818373ffffffffffffffffffffffffffffffffffffffff168273ffffffffffffffffffffffffffffffffffffffff167f8c5be1e5ebec7d5bd14f71427d1e84f3dd0314c0f7b2291e5b200ac8c7c3b92560405160405180910390a4505050565b6060600b805461073990611e87565b80601f016020809104026020016040519081016040528092919081815260200182805461076590611e87565b80156107b25780601f10610787576101008083540402835291602001916107b2565b820191906000526020600020905b81548152906001019060200180831161079557829003601f168201915b5050505050905090565b6060600a80546107cb90611e87565b80601f01602080910402602001604051908101604052809291908181526020018280546107f790611e87565b80156108445780601f1061081957610100808354040283529160200191610844565b820191906000526020600020905b81548152906001019060200180831161082757829003601f168201915b5050505050905090565b6000600880549050905090565b6108653382611016565b61086e57600080fd5b6108798383836110ab565b505050565b600061088983610ae9565b821061089457600080fd5b600660008473ffffffffffffffffffffffffffffffffffffffff1673ffffffffffffffffffffffffffffffffffffffff168152602001908152602001600020828154811061090b577f4e487b7100000000000000000000000000000000000000000000000000000000600052603260045260246000fd5b9060005260206000200154905092915050565b60008054906101000a900473ffffffffffffffffffffffffffffffffffffffff1673ffffffffffffffffffffffffffffffffffffffff163373ffffffffffffffffffffffffffffffffffffffff16146109ac576040517f08c379a00000000000000000000000000000000000000000000000000000000081526004016109a390611c7e565b60405180910390fd5b60011515600060149054906101000a900460ff16151514610a02576040517f08c379a00000000000000000000000000000000000000000000000000000000081526004016109f990611c5e565b60405180910390fd5b60008060146101000a81548160ff0219169083151502179055503373ffffffffffffffffffffffffffffffffffffffff167f5db9ee0a495bf2e6ff9c91a7834c1ba4fdd244a5e8aa4e537bd38aeae4b073aa60405160405180910390a2565b610a7c83838360405180602001604052806000815250610c98565b505050565b6000610a8b61084e565b8210610a9657600080fd5b60088281548110610ad0577f4e487b7100000000000000000000000000000000000000000000000000000000600052603260045260246000fd5b90600052602060002001549050919050565b6000919050565b6000610b32600460008473ffffffffffffffffffffffffffffffffffffffff1673ffffffffffffffffffffffffffffffffffffffff1681526020019081526020016000206112da565b9050919050565b60008060009054906101000a900473ffffffffffffffffffffffffffffffffffffffff16905090565b3373ffffffffffffffffffffffffffffffffffffffff168273ffffffffffffffffffffffffffffffffffffffff161415610b9b57600080fd5b80600560003373ffffffffffffffffffffffffffffffffffffffff1673ffffffffffffffffffffffffffffffffffffffff16815260200190815260200160002060008473ffffffffffffffffffffffffffffffffffffffff1673ffffffffffffffffffffffffffffffffffffffff16815260200190815260200160002060006101000a81548160ff0219169083151502179055508173ffffffffffffffffffffffffffffffffffffffff163373ffffffffffffffffffffffffffffffffffffffff167f17307eab39ab6107e8899845ad3d59bd9653f200f220920489ca2b5937696c3183604051610c8c9190611b81565b60405180910390a35050565b610ca384848461085b565b610caf848484846112e8565b610cb857600080fd5b50505050565b6060600c8054610ccd90611e87565b80601f0160208091040260200160405190810160405280929190818152602001828054610cf990611e87565b8015610d465780601f10610d1b57610100808354040283529160200191610d46565b820191906000526020600020905b815481529060010190602001808311610d2957829003601f168201915b5050505050905090565b6060610d5b826113ff565b610d6457600080fd5b600d60008381526020019081526020016000208054610d8290611e87565b80601f0160208091040260200160405190810160405280929190818152602001828054610dae90611e87565b8015610dfb5780601f10610dd057610100808354040283529160200191610dfb565b820191906000526020600020905b815481529060010190602001808311610dde57829003601f168201915b50505050509050919050565b6000600560008473ffffffffffffffffffffffffffffffffffffffff1673ffffffffffffffffffffffffffffffffffffffff16815260200190815260200160002060008373ffffffffffffffffffffffffffffffffffffffff1673ffffffffffffffffffffffffffffffffffffffff16815260200190815260200160002060009054906101000a900460ff16905092915050565b60008054906101000a900473ffffffffffffffffffffffffffffffffffffffff1673ffffffffffffffffffffffffffffffffffffffff163373ffffffffffffffffffffffffffffffffffffffff1614610f29576040517f08c379a0000000000000000000000000000000000000000000000000000000008152600401610f2090611c7e565b60405180910390fd5b600073ffffffffffffffffffffffffffffffffffffffff168173ffffffffffffffffffffffffffffffffffffffff161415610f99576040517f08c379a0000000000000000000000000000000000000000000000000000000008152600401610f9090611bbe565b60405180910390fd5b8073ffffffffffffffffffffffffffffffffffffffff1660008054906101000a900473ffffffffffffffffffffffffffffffffffffffff1673ffffffffffffffffffffffffffffffffffffffff167f0d18b5fd22306e373229b9439188228edca81207d1667f604daf6cef8aa3ee6760405160405180910390a350565b60008061102283610ae2565b90508073ffffffffffffffffffffffffffffffffffffffff168473ffffffffffffffffffffffffffffffffffffffff16148061109157508373ffffffffffffffffffffffffffffffffffffffff1661107984610576565b73ffffffffffffffffffffffffffffffffffffffff16145b806110a257506110a18185610e07565b5b91505092915050565b6110b481610ae2565b73ffffffffffffffffffffffffffffffffffffffff168373ffffffffffffffffffffffffffffffffffffffff1614611121576040517f08c379a000000000000000000000000000000000000000000000000000000000815260040161111890611bfe565b60405180910390fd5b600073ffffffffffffffffffffffffffffffffffffffff168273ffffffffffffffffffffffffffffffffffffffff161415611191576040517f08c379a000000000000000000000000000000000000000000000000000000000815260040161118890611c3e565b60405180910390fd5b61119a81611471565b6111e1600460008573ffffffffffffffffffffffffffffffffffffffff1673ffffffffffffffffffffffffffffffffffffffff16815260200190815260200160002061152f565b611228600460008473ffffffffffffffffffffffffffffffffffffffff1673ffffffffffffffffffffffffffffffffffffffff168152602001908152602001600020611552565b816002600083815260200190815260200160002060006101000a81548173ffffffffffffffffffffffffffffffffffffffff021916908373ffffffffffffffffffffffffffffffffffffffff160217905550808273ffffffffffffffffffffffffffffffffffffffff168473ffffffffffffffffffffffffffffffffffffffff167fddf252ad1be2c89b69c2b068fc378daa952ba7f163c4a11628f55a4df523b3ef60405160405180910390a4505050565b600081600001549050919050565b60006113098473ffffffffffffffffffffffffffffffffffffffff16611571565b61131657600190506113f7565b60008473ffffffffffffffffffffffffffffffffffffffff1663150b7a02338887876040518563ffffffff1660e01b81526004016113579493929190611b35565b602060405180830381600087803b15801561137157600080fd5b505af1158015611385573d6000803e3d6000fd5b505050506040513d601f19601f820116820180604052508101906113a99190611934565b905063150b7a0260e01b7bffffffffffffffffffffffffffffffffffffffffffffffffffffffff1916817bffffffffffffffffffffffffffffffffffffffffffffffffffffffff1916149150505b949350505050565b6000806002600084815260200190815260200160002060009054906101000a900473ffffffffffffffffffffffffffffffffffffffff169050600073ffffffffffffffffffffffffffffffffffffffff168173ffffffffffffffffffffffffffffffffffffffff161415915050919050565b600073ffffffffffffffffffffffffffffffffffffffff166003600083815260200190815260200160002060009054906101000a900473ffffffffffffffffffffffffffffffffffffffff1673ffffffffffffffffffffffffffffffffffffffff161461152c5760006003600083815260200190815260200160002060006101000a81548173ffffffffffffffffffffffffffffffffffffffff021916908373ffffffffffffffffffffffffffffffffffffffff1602179055505b50565b611547600182600001546115bc90919063ffffffff16565b816000018190555050565b60018160000160008282546115679190611d47565b9250508190555050565b60008060007fc5d2460186f7233c927e7db2dcc703c0e500b653ca82273b7bfad8045d85a47060001b9050833f91508082141580156115b357506000801b8214155b92505050919050565b60006115fe83836040518060400160405280601e81526020017f536166654d6174683a207375627472616374696f6e206f766572666c6f770000815250611606565b905092915050565b600083831115829061164e576040517f08c379a00000000000000000000000000000000000000000000000000000000081526004016116459190611b9c565b60405180910390fd5b506000838561165d9190611d9d565b9050809150509392505050565b600061167d61167884611cde565b611cb9565b90508281526020810184848401111561169557600080fd5b6116a0848285611e45565b509392505050565b6000813590506116b781612119565b92915050565b6000813590506116cc81612130565b92915050565b6000813590506116e181612147565b92915050565b6000815190506116f681612147565b92915050565b600082601f83011261170d57600080fd5b813561171d84826020860161166a565b91505092915050565b6000813590506117358161215e565b92915050565b60006020828403121561174d57600080fd5b600061175b848285016116a8565b91505092915050565b6000806040838503121561177757600080fd5b6000611785858286016116a8565b9250506020611796858286016116a8565b9150509250929050565b6000806000606084860312156117b557600080fd5b60006117c3868287016116a8565b93505060206117d4868287016116a8565b92505060406117e586828701611726565b9150509250925092565b6000806000806080858703121561180557600080fd5b6000611813878288016116a8565b9450506020611824878288016116a8565b935050604061183587828801611726565b925050606085013567ffffffffffffffff81111561185257600080fd5b61185e878288016116fc565b91505092959194509250565b6000806040838503121561187d57600080fd5b600061188b858286016116a8565b925050602061189c858286016116bd565b9150509250929050565b600080604083850312156118b957600080fd5b60006118c7858286016116a8565b92505060206118d885828601611726565b9150509250929050565b6000602082840312156118f457600080fd5b6000611902848285016116bd565b91505092915050565b60006020828403121561191d57600080fd5b600061192b848285016116d2565b91505092915050565b60006020828403121561194657600080fd5b6000611954848285016116e7565b91505092915050565b60006020828403121561196f57600080fd5b600061197d84828501611726565b91505092915050565b61198f81611dd1565b82525050565b61199e81611de3565b82525050565b60006119af82611d0f565b6119b98185611d25565b93506119c9818560208601611e54565b6119d281611f77565b840191505092915050565b60006119e882611d1a565b6119f28185611d36565b9350611a02818560208601611e54565b611a0b81611f77565b840191505092915050565b6000611a23601383611d36565b9150611a2e82611f88565b602082019050919050565b6000611a46602b83611d36565b9150611a5182611fb1565b604082019050919050565b6000611a69602183611d36565b9150611a7482612000565b604082019050919050565b6000611a8c601a83611d36565b9150611a978261204f565b602082019050919050565b6000611aaf601283611d36565b9150611aba82612078565b602082019050919050565b6000611ad2601b83611d36565b9150611add826120a1565b602082019050919050565b6000611af5602c83611d36565b9150611b00826120ca565b604082019050919050565b611b1481611e3b565b82525050565b6000602082019050611b2f6000830184611986565b92915050565b6000608082019050611b4a6000830187611986565b611b576020830186611986565b611b646040830185611b0b565b8181036060830152611b7681846119a4565b905095945050505050565b6000602082019050611b966000830184611995565b92915050565b60006020820190508181036000830152611bb681846119dd565b905092915050565b60006020820190508181036000830152611bd781611a16565b9050919050565b60006020820190508181036000830152611bf781611a39565b9050919050565b60006020820190508181036000830152611c1781611a5c565b9050919050565b60006020820190508181036000830152611c3781611a7f565b9050919050565b60006020820190508181036000830152611c5781611aa2565b9050919050565b60006020820190508181036000830152611c7781611ac5565b9050919050565b60006020820190508181036000830152611c9781611ae8565b9050919050565b6000602082019050611cb36000830184611b0b565b92915050565b6000611cc3611cd4565b9050611ccf8282611eb9565b919050565b6000604051905090565b600067ffffffffffffffff821115611cf957611cf8611f48565b5b611d0282611f77565b9050602081019050919050565b600081519050919050565b600081519050919050565b600082825260208201905092915050565b600082825260208201905092915050565b6000611d5282611e3b565b9150611d5d83611e3b565b9250827fffffffffffffffffffffffffffffffffffffffffffffffffffffffffffffffff03821115611d9257611d91611eea565b5b828201905092915050565b6000611da882611e3b565b9150611db383611e3b565b925082821015611dc657611dc5611eea565b5b828203905092915050565b6000611ddc82611e1b565b9050919050565b60008115159050919050565b60007fffffffff0000000000000000000000000000000000000000000000000000000082169050919050565b600073ffffffffffffffffffffffffffffffffffffffff82169050919050565b6000819050919050565b82818337600083830152505050565b60005b83811015611e72578082015181840152602081019050611e57565b83811115611e81576000848401525b50505050565b60006002820490506001821680611e9f57607f821691505b60208210811415611eb357611eb2611f19565b5b50919050565b611ec282611f77565b810181811067ffffffffffffffff82111715611ee157611ee0611f48565b5b80604052505050565b7f4e487b7100000000000000000000000000000000000000000000000000000000600052601160045260246000fd5b7f4e487b7100000000000000000000000000000000000000000000000000000000600052602260045260246000fd5b7f4e487b7100000000000000000000000000000000000000000000000000000000600052604160045260246000fd5b6000601f19601f8301169050919050565b7f4e6f7420612076616c6964206164647265737300000000000000000000000000600082015250565b7f43616c6c6572206973206e6f7420617574686f72697a656420616761696e737460008201527f207468697320746f6b656e000000000000000000000000000000000000000000602082015250565b7f4f6e6c7920746f6b656e206f776e65722063616e20706572666f726d2074686960008201527f7300000000000000000000000000000000000000000000000000000000000000602082015250565b7f43616e6e6f7420617070726f766520746f20796f757273656c66000000000000600082015250565b7f496e76616c696420746f20616464726573730000000000000000000000000000600082015250565b7f436f6e7472616374206e6565647320746f206265207061757365640000000000600082015250565b7f4f6e6c7920636f6e74726163742773206f776e65722063616e2063616c6c207460008201527f6869732066756e6374696f6e0000000000000000000000000000000000000000602082015250565b61212281611dd1565b811461212d57600080fd5b50565b61213981611de3565b811461214457600080fd5b50565b61215081611def565b811461215b57600080fd5b50565b61216781611e3b565b811461217257600080fd5b5056fea26469706673582212207aea412082d1a13cc5c3be78b94cda0028b9ab7700ee9c61dd076f208828f96864736f6c63430008010033",
  "immutableReferences": {},
  "source": "// SPDX-License-Identifier: MIT\npragma solidity 0.8.1;\n\nimport \"./ERC721Enumerable.sol\";\n\ncontract ERC721Metadata is ERC721Enumerable {\n    // TODO: Create private vars for token _name, _symbol, and _baseTokenURI (string)\n    string private _name;\n    string private _symbol;\n    string private _baseTokenURI;\n\n    // TODO: create private mapping of tokenId's to token uri's called '_tokenURIs'\n    mapping(uint256 => string) private _tokenURIs;\n\n    bytes4 private constant _INTERFACE_ID_ERC721_METADATA = 0x5b5e139f;\n\n    /*\n     * 0x5b5e139f ===\n     *     bytes4(keccak256('name()')) ^\n     *     bytes4(keccak256('symbol()')) ^\n     *     bytes4(keccak256('tokenURI(uint256)'))\n     */\n\n    constructor(\n        string memory name,\n        string memory symbol,\n        string memory baseTokenURI\n    ) {\n        // TODO: set instance var values\n        _name = name;\n        _symbol = symbol;\n        _baseTokenURI = baseTokenURI;\n        _registerInterface(_INTERFACE_ID_ERC721_METADATA);\n    }\n\n    function tokenURI(uint256 tokenId) external view returns (string memory) {\n        require(_exists(tokenId));\n        return _tokenURIs[tokenId];\n    }\n\n    function getName() external view returns (string memory) {\n        return _name;\n    }\n\n    function getSymbol() external view returns (string memory) {\n        return _symbol;\n    }\n\n    function getBaseTokenURI() external view returns (string memory) {\n        return _baseTokenURI;\n    }\n\n    function setTokenURI(uint256 tokenId) internal {\n        require(_exists(tokenId), \"The tokenId does not exist\");\n        _tokenURIs[tokenId] = strConcat(_baseTokenURI, uint2str(tokenId));\n    }\n\n    function strConcat(string memory _a, string memory _b)\n        internal\n        pure\n        returns (string memory _concatenatedString)\n    {\n        return strConcat(_a, _b, \"\", \"\", \"\");\n    }\n\n    function strConcat(\n        string memory _a,\n        string memory _b,\n        string memory _c,\n        string memory _d,\n        string memory _e\n    ) internal pure returns (string memory _concatenatedString) {\n        bytes memory _ba = bytes(_a);\n        bytes memory _bb = bytes(_b);\n        bytes memory _bc = bytes(_c);\n        bytes memory _bd = bytes(_d);\n        bytes memory _be = bytes(_e);\n        string memory abcde = new string(\n            _ba.length + _bb.length + _bc.length + _bd.length + _be.length\n        );\n        bytes memory babcde = bytes(abcde);\n        uint256 k = 0;\n        uint256 i = 0;\n        for (i = 0; i < _ba.length; i++) {\n            babcde[k++] = _ba[i];\n        }\n        for (i = 0; i < _bb.length; i++) {\n            babcde[k++] = _bb[i];\n        }\n        for (i = 0; i < _bc.length; i++) {\n            babcde[k++] = _bc[i];\n        }\n        for (i = 0; i < _bd.length; i++) {\n            babcde[k++] = _bd[i];\n        }\n        for (i = 0; i < _be.length; i++) {\n            babcde[k++] = _be[i];\n        }\n        return string(babcde);\n    }\n\n    function uint2str(uint256 _i)\n        internal\n        pure\n        returns (string memory _uintAsString)\n    {\n        if (_i == 0) {\n            return \"0\";\n        }\n        uint256 j = _i;\n        uint256 len;\n        while (j != 0) {\n            len++;\n            j /= 10;\n        }\n        bytes memory bstr = new bytes(len);\n        uint256 k = len - 1;\n        while (_i != 0) {\n            bstr[k--] = bytes1(uint8(48 + (_i % 10)));\n            _i /= 10;\n        }\n        return string(bstr);\n    }\n}\n",
  "sourcePath": "/media/indigo/backup/AXEL/Personal/Tutorials/blockchain-capstone/Blockchain-Capstone/eth-contracts/contracts/openzeppelin/ERC721Metadata.sol",
  "compiler": {
    "name": "solc",
    "version": "0.8.1+commit.df193b15.Emscripten.clang"
  },
  "schemaVersion": "3.3.3",
  "updatedAt": "2021-09-28T20:16:15.270Z",
  "devdoc": {
    "kind": "dev",
    "methods": {
      "isApprovedForAll(address,address)": {
        "details": "Tells whether an operator is approved by a given owner",
        "params": {
          "operator": "operator address which you want to query the approval of",
          "owner": "owner address which you want to query the approval of"
        },
        "returns": {
          "_0": "bool whether the given operator is approved by the given owner"
        }
      },
      "setApprovalForAll(address,bool)": {
        "details": "Sets or unsets the approval of a given operator An operator is allowed to transfer all tokens of the sender on their behalf",
        "params": {
          "approved": "representing the status of the approval to be set",
          "to": "operator address to set the approval"
        }
      },
      "supportsInterface(bytes4)": {
        "details": "See {IERC165-supportsInterface}. Time complexity O(1), guaranteed to always use less than 30 000 gas."
      },
      "tokenByIndex(uint256)": {
        "details": "Gets the token ID at a given index of all the tokens in this contract Reverts if the index is greater or equal to the total number of tokens",
        "params": {
          "index": "uint256 representing the index to be accessed of the tokens list"
        },
        "returns": {
          "_0": "uint256 token ID at the given index of the tokens list"
        }
      },
      "tokenOfOwnerByIndex(address,uint256)": {
        "details": "Gets the token ID at a given index of the tokens list of the requested owner",
        "params": {
          "index": "uint256 representing the index to be accessed of the requested tokens list",
          "owner": "address owning the tokens list to be accessed"
        },
        "returns": {
          "_0": "uint256 token ID at the given index of the tokens list owned by the requested address"
        }
      },
      "totalSupply()": {
        "details": "Gets the total amount of tokens stored by the contract",
        "returns": {
          "_0": "uint256 representing the total amount of tokens"
        }
      }
    },
    "version": 1
  },
  "userdoc": {
    "kind": "user",
    "methods": {},
    "version": 1
  }
}