{
  "contractName": "ERC721",
  "abi": [
    {
      "inputs": [],
      "stateMutability": "nonpayable",
      "type": "constructor"
    },
    {
      "anonymous": false,
      "inputs": [
        {
          "indexed": true,
          "internalType": "address",
          "name": "owner",
          "type": "address"
        },
        {
          "indexed": true,
          "internalType": "address",
          "name": "approved",
          "type": "address"
        },
        {
          "indexed": true,
          "internalType": "uint256",
          "name": "tokenId",
          "type": "uint256"
        }
      ],
      "name": "Approval",
      "type": "event"
    },
    {
      "anonymous": false,
      "inputs": [
        {
          "indexed": true,
          "internalType": "address",
          "name": "owner",
          "type": "address"
        },
        {
          "indexed": true,
          "internalType": "address",
          "name": "operator",
          "type": "address"
        },
        {
          "indexed": false,
          "internalType": "bool",
          "name": "approved",
          "type": "bool"
        }
      ],
      "name": "ApprovalForAll",
      "type": "event"
    },
    {
      "anonymous": false,
      "inputs": [
        {
          "indexed": true,
          "internalType": "address",
          "name": "previousOwner",
          "type": "address"
        },
        {
          "indexed": true,
          "internalType": "address",
          "name": "newOwner",
          "type": "address"
        }
      ],
      "name": "OwnershipTransfered",
      "type": "event"
    },
    {
      "anonymous": false,
      "inputs": [
        {
          "indexed": true,
          "internalType": "address",
          "name": "account",
          "type": "address"
        }
      ],
      "name": "Paused",
      "type": "event"
    },
    {
      "anonymous": false,
      "inputs": [
        {
          "indexed": true,
          "internalType": "address",
          "name": "from",
          "type": "address"
        },
        {
          "indexed": true,
          "internalType": "address",
          "name": "to",
          "type": "address"
        },
        {
          "indexed": true,
          "internalType": "uint256",
          "name": "tokenId",
          "type": "uint256"
        }
      ],
      "name": "Transfer",
      "type": "event"
    },
    {
      "anonymous": false,
      "inputs": [
        {
          "indexed": true,
          "internalType": "address",
          "name": "account",
          "type": "address"
        }
      ],
      "name": "Unpaused",
      "type": "event"
    },
    {
      "inputs": [],
      "name": "getOwner",
      "outputs": [
        {
          "internalType": "address",
          "name": "",
          "type": "address"
        }
      ],
      "stateMutability": "view",
      "type": "function"
    },
    {
      "inputs": [
        {
          "internalType": "bool",
          "name": "newState",
          "type": "bool"
        }
      ],
      "name": "pause",
      "outputs": [],
      "stateMutability": "nonpayable",
      "type": "function"
    },
    {
      "inputs": [
        {
          "internalType": "bytes4",
          "name": "interfaceId",
          "type": "bytes4"
        }
      ],
      "name": "supportsInterface",
      "outputs": [
        {
          "internalType": "bool",
          "name": "",
          "type": "bool"
        }
      ],
      "stateMutability": "view",
      "type": "function"
    },
    {
      "inputs": [
        {
          "internalType": "address",
          "name": "newOwner",
          "type": "address"
        }
      ],
      "name": "transferOwnership",
      "outputs": [],
      "stateMutability": "nonpayable",
      "type": "function"
    },
    {
      "inputs": [],
      "name": "unpause",
      "outputs": [],
      "stateMutability": "nonpayable",
      "type": "function"
    },
    {
      "inputs": [
        {
          "internalType": "address",
          "name": "owner",
          "type": "address"
        }
      ],
      "name": "balanceOf",
      "outputs": [
        {
          "internalType": "uint256",
          "name": "",
          "type": "uint256"
        }
      ],
      "stateMutability": "view",
      "type": "function"
    },
    {
      "inputs": [
        {
          "internalType": "uint256",
          "name": "tokenId",
          "type": "uint256"
        }
      ],
      "name": "ownerOf",
      "outputs": [
        {
          "internalType": "address",
          "name": "",
          "type": "address"
        }
      ],
      "stateMutability": "view",
      "type": "function"
    },
    {
      "inputs": [
        {
          "internalType": "address",
          "name": "to",
          "type": "address"
        },
        {
          "internalType": "uint256",
          "name": "tokenId",
          "type": "uint256"
        }
      ],
      "name": "approve",
      "outputs": [],
      "stateMutability": "nonpayable",
      "type": "function"
    },
    {
      "inputs": [
        {
          "internalType": "uint256",
          "name": "tokenId",
          "type": "uint256"
        }
      ],
      "name": "getApproved",
      "outputs": [
        {
          "internalType": "address",
          "name": "",
          "type": "address"
        }
      ],
      "stateMutability": "view",
      "type": "function"
    },
    {
      "inputs": [
        {
          "internalType": "address",
          "name": "to",
          "type": "address"
        },
        {
          "internalType": "bool",
          "name": "approved",
          "type": "bool"
        }
      ],
      "name": "setApprovalForAll",
      "outputs": [],
      "stateMutability": "nonpayable",
      "type": "function"
    },
    {
      "inputs": [
        {
          "internalType": "address",
          "name": "owner",
          "type": "address"
        },
        {
          "internalType": "address",
          "name": "operator",
          "type": "address"
        }
      ],
      "name": "isApprovedForAll",
      "outputs": [
        {
          "internalType": "bool",
          "name": "",
          "type": "bool"
        }
      ],
      "stateMutability": "view",
      "type": "function"
    },
    {
      "inputs": [
        {
          "internalType": "address",
          "name": "from",
          "type": "address"
        },
        {
          "internalType": "address",
          "name": "to",
          "type": "address"
        },
        {
          "internalType": "uint256",
          "name": "tokenId",
          "type": "uint256"
        }
      ],
      "name": "transferFrom",
      "outputs": [],
      "stateMutability": "nonpayable",
      "type": "function"
    },
    {
      "inputs": [
        {
          "internalType": "address",
          "name": "from",
          "type": "address"
        },
        {
          "internalType": "address",
          "name": "to",
          "type": "address"
        },
        {
          "internalType": "uint256",
          "name": "tokenId",
          "type": "uint256"
        }
      ],
      "name": "safeTransferFrom",
      "outputs": [],
      "stateMutability": "nonpayable",
      "type": "function"
    },
    {
      "inputs": [
        {
          "internalType": "address",
          "name": "from",
          "type": "address"
        },
        {
          "internalType": "address",
          "name": "to",
          "type": "address"
        },
        {
          "internalType": "uint256",
          "name": "tokenId",
          "type": "uint256"
        },
        {
          "internalType": "bytes",
          "name": "_data",
          "type": "bytes"
        }
      ],
      "name": "safeTransferFrom",
      "outputs": [],
      "stateMutability": "nonpayable",
      "type": "function"
    }
  ],
  "bytecode": "0x60806040523480156200001157600080fd5b50336000806101000a81548173ffffffffffffffffffffffffffffffffffffffff021916908373ffffffffffffffffffffffffffffffffffffffff16021790555060008060146101000a81548160ff0219169083151502179055506200009d7f01ffc9a700000000000000000000000000000000000000000000000000000000620000bb60201b60201c565b620000b56380ac58cd60e01b620000bb60201b60201c565b62000216565b63ffffffff60e01b817bffffffffffffffffffffffffffffffffffffffffffffffffffffffff1916141562000127576040517f08c379a00000000000000000000000000000000000000000000000000000000081526004016200011e90620001ba565b60405180910390fd5b6001806000837bffffffffffffffffffffffffffffffffffffffffffffffffffffffff19167bffffffffffffffffffffffffffffffffffffffffffffffffffffffff1916815260200190815260200160002060006101000a81548160ff02191690831515021790555050565b6000620001a2601c83620001dc565b9150620001af82620001ed565b602082019050919050565b60006020820190508181036000830152620001d58162000193565b9050919050565b600082825260208201905092915050565b7f4552433136353a20696e76616c696420696e7465726661636520696400000000600082015250565b611c0880620002266000396000f3fe608060405234801561001057600080fd5b50600436106100ea5760003560e01c80636352211e1161008c578063a22cb46511610066578063a22cb46514610247578063b88d4fde14610263578063e985e9c51461027f578063f2fde38b146102af576100ea565b80636352211e146101c957806370a08231146101f9578063893d20e814610229576100ea565b8063095ea7b3116100c8578063095ea7b31461016b57806323b872dd146101875780633f4ba83a146101a357806342842e0e146101ad576100ea565b806301ffc9a7146100ef57806302329a291461011f578063081812fc1461013b575b600080fd5b610109600480360381019061010491906113c9565b6102cb565b604051610116919061163f565b60405180910390f35b610139600480360381019061013491906113a0565b610333565b005b6101556004803603810190610150919061141b565b610421565b60405161016291906115d8565b60405180910390f35b61018560048036038101906101809190611364565b610428565b005b6101a1600480360381019061019c919061125e565b6105d5565b005b6101ab6105f8565b005b6101c760048036038101906101c2919061125e565b61073b565b005b6101e360048036038101906101de919061141b565b61075b565b6040516101f091906115d8565b60405180910390f35b610213600480360381019061020e91906111f9565b610762565b604051610220919061175c565b60405180910390f35b6102316107b2565b60405161023e91906115d8565b60405180910390f35b610261600480360381019061025c9190611328565b6107db565b005b61027d600480360381019061027891906112ad565b610911565b005b61029960048036038101906102949190611222565b610937565b6040516102a6919061163f565b60405180910390f35b6102c960048036038101906102c491906111f9565b6109cb565b005b600060016000837bffffffffffffffffffffffffffffffffffffffffffffffffffffffff19167bffffffffffffffffffffffffffffffffffffffffffffffffffffffff1916815260200190815260200160002060009054906101000a900460ff169050919050565b60008054906101000a900473ffffffffffffffffffffffffffffffffffffffff1673ffffffffffffffffffffffffffffffffffffffff163373ffffffffffffffffffffffffffffffffffffffff16146103c1576040517f08c379a00000000000000000000000000000000000000000000000000000000081526004016103b89061173c565b60405180910390fd5b80600060146101000a81548160ff0219169083151502179055503373ffffffffffffffffffffffffffffffffffffffff167f62e78cea01bee320cd4e420270b5ea74000d11b0c9f74754ebdbfc544b05a25860405160405180910390a250565b6000919050565b60006104338261075b565b90508073ffffffffffffffffffffffffffffffffffffffff168373ffffffffffffffffffffffffffffffffffffffff1614156104a4576040517f08c379a000000000000000000000000000000000000000000000000000000000815260040161049b906116dc565b60405180910390fd5b8073ffffffffffffffffffffffffffffffffffffffff163373ffffffffffffffffffffffffffffffffffffffff1614806104e457506104e38133610937565b5b610523576040517f08c379a000000000000000000000000000000000000000000000000000000000815260040161051a9061169c565b60405180910390fd5b826003600084815260200190815260200160002060006101000a81548173ffffffffffffffffffffffffffffffffffffffff021916908373ffffffffffffffffffffffffffffffffffffffff160217905550818373ffffffffffffffffffffffffffffffffffffffff168273ffffffffffffffffffffffffffffffffffffffff167f8c5be1e5ebec7d5bd14f71427d1e84f3dd0314c0f7b2291e5b200ac8c7c3b92560405160405180910390a4505050565b6105df3382610b46565b6105e857600080fd5b6105f3838383610bdb565b505050565b60008054906101000a900473ffffffffffffffffffffffffffffffffffffffff1673ffffffffffffffffffffffffffffffffffffffff163373ffffffffffffffffffffffffffffffffffffffff1614610686576040517f08c379a000000000000000000000000000000000000000000000000000000000815260040161067d9061173c565b60405180910390fd5b60011515600060149054906101000a900460ff161515146106dc576040517f08c379a00000000000000000000000000000000000000000000000000000000081526004016106d39061171c565b60405180910390fd5b60008060146101000a81548160ff0219169083151502179055503373ffffffffffffffffffffffffffffffffffffffff167f5db9ee0a495bf2e6ff9c91a7834c1ba4fdd244a5e8aa4e537bd38aeae4b073aa60405160405180910390a2565b61075683838360405180602001604052806000815250610911565b505050565b6000919050565b60006107ab600460008473ffffffffffffffffffffffffffffffffffffffff1673ffffffffffffffffffffffffffffffffffffffff168152602001908152602001600020610e0a565b9050919050565b60008060009054906101000a900473ffffffffffffffffffffffffffffffffffffffff16905090565b3373ffffffffffffffffffffffffffffffffffffffff168273ffffffffffffffffffffffffffffffffffffffff16141561081457600080fd5b80600560003373ffffffffffffffffffffffffffffffffffffffff1673ffffffffffffffffffffffffffffffffffffffff16815260200190815260200160002060008473ffffffffffffffffffffffffffffffffffffffff1673ffffffffffffffffffffffffffffffffffffffff16815260200190815260200160002060006101000a81548160ff0219169083151502179055508173ffffffffffffffffffffffffffffffffffffffff163373ffffffffffffffffffffffffffffffffffffffff167f17307eab39ab6107e8899845ad3d59bd9653f200f220920489ca2b5937696c3183604051610905919061163f565b60405180910390a35050565b61091c8484846105d5565b61092884848484610e18565b61093157600080fd5b50505050565b6000600560008473ffffffffffffffffffffffffffffffffffffffff1673ffffffffffffffffffffffffffffffffffffffff16815260200190815260200160002060008373ffffffffffffffffffffffffffffffffffffffff1673ffffffffffffffffffffffffffffffffffffffff16815260200190815260200160002060009054906101000a900460ff16905092915050565b60008054906101000a900473ffffffffffffffffffffffffffffffffffffffff1673ffffffffffffffffffffffffffffffffffffffff163373ffffffffffffffffffffffffffffffffffffffff1614610a59576040517f08c379a0000000000000000000000000000000000000000000000000000000008152600401610a509061173c565b60405180910390fd5b600073ffffffffffffffffffffffffffffffffffffffff168173ffffffffffffffffffffffffffffffffffffffff161415610ac9576040517f08c379a0000000000000000000000000000000000000000000000000000000008152600401610ac09061167c565b60405180910390fd5b8073ffffffffffffffffffffffffffffffffffffffff1660008054906101000a900473ffffffffffffffffffffffffffffffffffffffff1673ffffffffffffffffffffffffffffffffffffffff167f0d18b5fd22306e373229b9439188228edca81207d1667f604daf6cef8aa3ee6760405160405180910390a350565b600080610b528361075b565b90508073ffffffffffffffffffffffffffffffffffffffff168473ffffffffffffffffffffffffffffffffffffffff161480610bc157508373ffffffffffffffffffffffffffffffffffffffff16610ba984610421565b73ffffffffffffffffffffffffffffffffffffffff16145b80610bd25750610bd18185610937565b5b91505092915050565b610be48161075b565b73ffffffffffffffffffffffffffffffffffffffff168373ffffffffffffffffffffffffffffffffffffffff1614610c51576040517f08c379a0000000000000000000000000000000000000000000000000000000008152600401610c48906116bc565b60405180910390fd5b600073ffffffffffffffffffffffffffffffffffffffff168273ffffffffffffffffffffffffffffffffffffffff161415610cc1576040517f08c379a0000000000000000000000000000000000000000000000000000000008152600401610cb8906116fc565b60405180910390fd5b610cca81610f2f565b610d11600460008573ffffffffffffffffffffffffffffffffffffffff1673ffffffffffffffffffffffffffffffffffffffff168152602001908152602001600020610fed565b610d58600460008473ffffffffffffffffffffffffffffffffffffffff1673ffffffffffffffffffffffffffffffffffffffff168152602001908152602001600020611010565b816002600083815260200190815260200160002060006101000a81548173ffffffffffffffffffffffffffffffffffffffff021916908373ffffffffffffffffffffffffffffffffffffffff160217905550808273ffffffffffffffffffffffffffffffffffffffff168473ffffffffffffffffffffffffffffffffffffffff167fddf252ad1be2c89b69c2b068fc378daa952ba7f163c4a11628f55a4df523b3ef60405160405180910390a4505050565b600081600001549050919050565b6000610e398473ffffffffffffffffffffffffffffffffffffffff1661102f565b610e465760019050610f27565b60008473ffffffffffffffffffffffffffffffffffffffff1663150b7a02338887876040518563ffffffff1660e01b8152600401610e8794939291906115f3565b602060405180830381600087803b158015610ea157600080fd5b505af1158015610eb5573d6000803e3d6000fd5b505050506040513d601f19601f82011682018060405250810190610ed991906113f2565b905063150b7a0260e01b7bffffffffffffffffffffffffffffffffffffffffffffffffffffffff1916817bffffffffffffffffffffffffffffffffffffffffffffffffffffffff1916149150505b949350505050565b600073ffffffffffffffffffffffffffffffffffffffff166003600083815260200190815260200160002060009054906101000a900473ffffffffffffffffffffffffffffffffffffffff1673ffffffffffffffffffffffffffffffffffffffff1614610fea5760006003600083815260200190815260200160002060006101000a81548173ffffffffffffffffffffffffffffffffffffffff021916908373ffffffffffffffffffffffffffffffffffffffff1602179055505b50565b6110056001826000015461107a90919063ffffffff16565b816000018190555050565b60018160000160008282546110259190611805565b9250508190555050565b60008060007fc5d2460186f7233c927e7db2dcc703c0e500b653ca82273b7bfad8045d85a47060001b9050833f915080821415801561107157506000801b8214155b92505050919050565b60006110bc83836040518060400160405280601e81526020017f536166654d6174683a207375627472616374696f6e206f766572666c6f7700008152506110c4565b905092915050565b600083831115829061110c576040517f08c379a0000000000000000000000000000000000000000000000000000000008152600401611103919061165a565b60405180910390fd5b506000838561111b919061185b565b9050809150509392505050565b600061113b6111368461179c565b611777565b90508281526020810184848401111561115357600080fd5b61115e848285611903565b509392505050565b60008135905061117581611b76565b92915050565b60008135905061118a81611b8d565b92915050565b60008135905061119f81611ba4565b92915050565b6000815190506111b481611ba4565b92915050565b600082601f8301126111cb57600080fd5b81356111db848260208601611128565b91505092915050565b6000813590506111f381611bbb565b92915050565b60006020828403121561120b57600080fd5b600061121984828501611166565b91505092915050565b6000806040838503121561123557600080fd5b600061124385828601611166565b925050602061125485828601611166565b9150509250929050565b60008060006060848603121561127357600080fd5b600061128186828701611166565b935050602061129286828701611166565b92505060406112a3868287016111e4565b9150509250925092565b600080600080608085870312156112c357600080fd5b60006112d187828801611166565b94505060206112e287828801611166565b93505060406112f3878288016111e4565b925050606085013567ffffffffffffffff81111561131057600080fd5b61131c878288016111ba565b91505092959194509250565b6000806040838503121561133b57600080fd5b600061134985828601611166565b925050602061135a8582860161117b565b9150509250929050565b6000806040838503121561137757600080fd5b600061138585828601611166565b9250506020611396858286016111e4565b9150509250929050565b6000602082840312156113b257600080fd5b60006113c08482850161117b565b91505092915050565b6000602082840312156113db57600080fd5b60006113e984828501611190565b91505092915050565b60006020828403121561140457600080fd5b6000611412848285016111a5565b91505092915050565b60006020828403121561142d57600080fd5b600061143b848285016111e4565b91505092915050565b61144d8161188f565b82525050565b61145c816118a1565b82525050565b600061146d826117cd565b61147781856117e3565b9350611487818560208601611912565b611490816119d4565b840191505092915050565b60006114a6826117d8565b6114b081856117f4565b93506114c0818560208601611912565b6114c9816119d4565b840191505092915050565b60006114e16013836117f4565b91506114ec826119e5565b602082019050919050565b6000611504602b836117f4565b915061150f82611a0e565b604082019050919050565b60006115276021836117f4565b915061153282611a5d565b604082019050919050565b600061154a601a836117f4565b915061155582611aac565b602082019050919050565b600061156d6012836117f4565b915061157882611ad5565b602082019050919050565b6000611590601b836117f4565b915061159b82611afe565b602082019050919050565b60006115b3602c836117f4565b91506115be82611b27565b604082019050919050565b6115d2816118f9565b82525050565b60006020820190506115ed6000830184611444565b92915050565b60006080820190506116086000830187611444565b6116156020830186611444565b61162260408301856115c9565b81810360608301526116348184611462565b905095945050505050565b60006020820190506116546000830184611453565b92915050565b60006020820190508181036000830152611674818461149b565b905092915050565b60006020820190508181036000830152611695816114d4565b9050919050565b600060208201905081810360008301526116b5816114f7565b9050919050565b600060208201905081810360008301526116d58161151a565b9050919050565b600060208201905081810360008301526116f58161153d565b9050919050565b6000602082019050818103600083015261171581611560565b9050919050565b6000602082019050818103600083015261173581611583565b9050919050565b60006020820190508181036000830152611755816115a6565b9050919050565b600060208201905061177160008301846115c9565b92915050565b6000611781611792565b905061178d8282611945565b919050565b6000604051905090565b600067ffffffffffffffff8211156117b7576117b66119a5565b5b6117c0826119d4565b9050602081019050919050565b600081519050919050565b600081519050919050565b600082825260208201905092915050565b600082825260208201905092915050565b6000611810826118f9565b915061181b836118f9565b9250827fffffffffffffffffffffffffffffffffffffffffffffffffffffffffffffffff038211156118505761184f611976565b5b828201905092915050565b6000611866826118f9565b9150611871836118f9565b92508282101561188457611883611976565b5b828203905092915050565b600061189a826118d9565b9050919050565b60008115159050919050565b60007fffffffff0000000000000000000000000000000000000000000000000000000082169050919050565b600073ffffffffffffffffffffffffffffffffffffffff82169050919050565b6000819050919050565b82818337600083830152505050565b60005b83811015611930578082015181840152602081019050611915565b8381111561193f576000848401525b50505050565b61194e826119d4565b810181811067ffffffffffffffff8211171561196d5761196c6119a5565b5b80604052505050565b7f4e487b7100000000000000000000000000000000000000000000000000000000600052601160045260246000fd5b7f4e487b7100000000000000000000000000000000000000000000000000000000600052604160045260246000fd5b6000601f19601f8301169050919050565b7f4e6f7420612076616c6964206164647265737300000000000000000000000000600082015250565b7f43616c6c6572206973206e6f7420617574686f72697a656420616761696e737460008201527f207468697320746f6b656e000000000000000000000000000000000000000000602082015250565b7f4f6e6c7920746f6b656e206f776e65722063616e20706572666f726d2074686960008201527f7300000000000000000000000000000000000000000000000000000000000000602082015250565b7f43616e6e6f7420617070726f766520746f20796f757273656c66000000000000600082015250565b7f496e76616c696420746f20616464726573730000000000000000000000000000600082015250565b7f436f6e7472616374206e6565647320746f206265207061757365640000000000600082015250565b7f4f6e6c7920636f6e74726163742773206f776e65722063616e2063616c6c207460008201527f6869732066756e6374696f6e0000000000000000000000000000000000000000602082015250565b611b7f8161188f565b8114611b8a57600080fd5b50565b611b96816118a1565b8114611ba157600080fd5b50565b611bad816118ad565b8114611bb857600080fd5b50565b611bc4816118f9565b8114611bcf57600080fd5b5056fea26469706673582212206570d3af1e27b8118c4a90ab7360601b6c7c0da77df6d2ae652140847e466df664736f6c63430008010033",
  "immutableReferences": {},
  "source": "// SPDX-License-Identifier: LGPL-3.0-only\n// This file is LGPL3 Licensed\npragma solidity 0.8.1;\n\nimport \"./openzeppelin/Address.sol\";\nimport \"./openzeppelin/Counters.sol\";\nimport \"./openzeppelin/SafeMath.sol\";\nimport \"./openzeppelin/ERC165.sol\";\nimport \"./openzeppelin/IERC721Receiver.sol\";\n\nimport \"./utils/Ownable.sol\";\nimport \"./utils/Pausable.sol\";\n\n\ncontract ERC721 is Pausable, ERC165 {\n\n    using SafeMath for uint256;\n\n    event Transfer(\n        address indexed from,\n        address indexed to,\n        uint256 indexed tokenId\n    );\n\n    event Approval(\n        address indexed owner,\n        address indexed approved,\n        uint256 indexed tokenId\n    );\n\n    event ApprovalForAll(\n        address indexed owner,\n        address indexed operator,\n        bool approved\n    );\n\n    using SafeMath for uint256;\n    using Address for address;\n    using Counters for Counters.Counter;\n\n    // Equals to `bytes4(keccak256(\"onERC721Received(address,address,uint256,bytes)\"))`\n    // which can be also obtained as `IERC721Receiver(0).onERC721Received.selector`\n    bytes4 private constant _ERC721_RECEIVED = 0x150b7a02;\n\n    // Mapping from token ID to owner\n    mapping(uint256 => address) private _tokenOwner;\n\n    // Mapping from token ID to approved address\n    mapping(uint256 => address) private _tokenApprovals;\n\n    // Mapping from owner to number of owned token\n    // IMPORTANT: this mapping uses Counters lib which is used to protect overflow when incrementing/decrementing a uint\n    // use the following functions when interacting with Counters: increment(), decrement(), and current() to get the value\n    // see: https://github.com/OpenZeppelin/openzeppelin-solidity/blob/master/contracts/drafts/Counters.sol\n    mapping(address => Counters.Counter) private _ownedTokensCount;\n\n    // Mapping from owner to operator approvals\n    mapping(address => mapping(address => bool)) private _operatorApprovals;\n\n    bytes4 private constant _INTERFACE_ID_ERC721 = 0x80ac58cd;\n\n    constructor() {\n        // register the supported interfaces to conform to ERC721 via ERC165\n        _registerInterface(_INTERFACE_ID_ERC721);\n    }\n\n    function balanceOf(address owner) public view returns (uint256) {\n        // TODO return the token balance of given address\n          return _ownedTokensCount[owner].current();\n        // TIP: remember the functions to use for Counters. you can refresh yourself with the link above\n    }\n\n    function ownerOf(uint256 tokenId) public view returns (address) {\n        // TODO return the owner of the given tokenId\n    }\n\n    //    @dev Approves another address to transfer the given token ID\n    function approve(address to, uint256 tokenId) public {\n        address tokenOwner = ownerOf(tokenId);\n        // TODO require the given address to not be the owner of the tokenId\n        require(to != tokenOwner, \"Cannot approve to yourself\");\n        // TODO require the msg sender to be the owner of the token or isApprovedForAll() to be true\n        require(msg.sender == tokenOwner || isApprovedForAll(tokenOwner, msg.sender), \"Caller is not authorized against this token\");\n        // TODO add 'to' address to token approvals\n        _tokenApprovals[tokenId] = to;\n        // TODO emit Approval Event\n        emit Approval(tokenOwner, to, tokenId);\n    }\n\n    function getApproved(uint256 tokenId) public view returns (address) {\n        // TODO return token approval if it exists\n    }\n\n    /**\n     * @dev Sets or unsets the approval of a given operator\n     * An operator is allowed to transfer all tokens of the sender on their behalf\n     * @param to operator address to set the approval\n     * @param approved representing the status of the approval to be set\n     */\n    function setApprovalForAll(address to, bool approved) public {\n        require(to != msg.sender);\n        _operatorApprovals[msg.sender][to] = approved;\n        emit ApprovalForAll(msg.sender, to, approved);\n    }\n\n    /**\n     * @dev Tells whether an operator is approved by a given owner\n     * @param owner owner address which you want to query the approval of\n     * @param operator operator address which you want to query the approval of\n     * @return bool whether the given operator is approved by the given owner\n     */\n    function isApprovedForAll(address owner, address operator)\n        public\n        view\n        returns (bool)\n    {\n        return _operatorApprovals[owner][operator];\n    }\n\n    function transferFrom(\n        address from,\n        address to,\n        uint256 tokenId\n    ) public {\n        require(_isApprovedOrOwner(msg.sender, tokenId));\n\n        _transferFromInternal(from, to, tokenId);\n    }\n\n    function safeTransferFrom(\n        address from,\n        address to,\n        uint256 tokenId\n    ) public {\n        safeTransferFrom(from, to, tokenId, \"\");\n    }\n\n    function safeTransferFrom(\n        address from,\n        address to,\n        uint256 tokenId,\n        bytes memory _data\n    ) public {\n        transferFrom(from, to, tokenId);\n        require(_checkOnERC721Received(from, to, tokenId, _data));\n    }\n\n    /**\n     * @dev Returns whether the specified token exists\n     * @param tokenId uint256 ID of the token to query the existence of\n     * @return bool whether the token exists\n     */\n    function _exists(uint256 tokenId) internal view returns (bool) {\n        address owner = _tokenOwner[tokenId];\n        return owner != address(0);\n    }\n\n    /**\n     * @dev Returns whether the given spender can transfer a given token ID\n     * @param spender address of the spender to query\n     * @param tokenId uint256 ID of the token to be transferred\n     * @return bool whether the msg.sender is approved for the given token ID,\n     * is an operator of the owner, or is the owner of the token\n     */\n    function _isApprovedOrOwner(address spender, uint256 tokenId)\n        internal\n        view\n        returns (bool)\n    {\n        address owner = ownerOf(tokenId);\n        return (spender == owner ||\n            getApproved(tokenId) == spender ||\n            isApprovedForAll(owner, spender));\n    }\n\n    // @dev Internal function to mint a new token\n    // TIP: remember the functions to use for Counters. you can refresh yourself with the link above\n    function _mintInternal(address to, uint256 tokenId) internal {\n        // TODO revert if given tokenId already exists or given address is invalid\n        require(_tokenOwner[tokenId] == address(0), \"Token exists already\");\n        require(to != address(0), \"Invalid to address\");\n        // TODO mint tokenId to given address & increase token count of owner\n        _tokenOwner[tokenId] = to;\n        _ownedTokensCount[to].increment();\n        // TODO emit Transfer event\n        emit Transfer(address(0), to, tokenId);\n    }\n\n    // @dev Internal function to transfer ownership of a given token ID to another address.\n    // TIP: remember the functions to use for Counters. you can refresh yourself with the link above\n    function _transferFromInternal(\n        address from,\n        address to,\n        uint256 tokenId\n    ) internal {\n         // TODO: require from address is the owner of the given token\n        require(from == ownerOf(tokenId), \"Only token owner can perform this\");\n        // TODO: require token is being transfered to valid address\n        require(to != address(0), \"Invalid to address\");\n        // TODO: clear approval\n        _clearApproval(tokenId);\n        // TODO: update token counts & transfer ownership of the token ID \n        _ownedTokensCount[from].decrement();\n        _ownedTokensCount[to].increment();\n        _tokenOwner[tokenId] = to;\n        // TODO: emit correct event\n        emit Transfer(from, to, tokenId);\n    }\n\n    /**\n     * @dev Internal function to invoke `onERC721Received` on a target address\n     * The call is not executed if the target address is not a contract\n     * @param from address representing the previous owner of the given token ID\n     * @param to target address that will receive the tokens\n     * @param tokenId uint256 ID of the token to be transferred\n     * @param _data bytes optional data to send along with the call\n     * @return bool whether the call correctly returned the expected magic value\n     */\n    function _checkOnERC721Received(\n        address from,\n        address to,\n        uint256 tokenId,\n        bytes memory _data\n    ) internal returns (bool) {\n        if (!to.isContract()) {\n            return true;\n        }\n\n        bytes4 retval =\n            IERC721Receiver(to).onERC721Received(\n                msg.sender,\n                from,\n                tokenId,\n                _data\n            );\n        return (retval == _ERC721_RECEIVED);\n    }\n\n    // @dev Private function to clear current approval of a given token ID\n    function _clearApproval(uint256 tokenId) private {\n        if (_tokenApprovals[tokenId] != address(0)) {\n            _tokenApprovals[tokenId] = address(0);\n        }\n    }\n}",
  "sourcePath": "/media/indigo/backup/AXEL/Personal/Tutorials/blockchain-capstone/Blockchain-Capstone/eth-contracts/contracts/ERC721.sol",
  "compiler": {
    "name": "solc",
    "version": "0.8.1+commit.df193b15.Emscripten.clang"
  },
  "schemaVersion": "3.3.3",
  "updatedAt": "2021-09-30T21:47:02.600Z",
  "devdoc": {
    "kind": "dev",
    "methods": {
      "isApprovedForAll(address,address)": {
        "details": "Tells whether an operator is approved by a given owner",
        "params": {
          "operator": "operator address which you want to query the approval of",
          "owner": "owner address which you want to query the approval of"
        },
        "returns": {
          "_0": "bool whether the given operator is approved by the given owner"
        }
      },
      "setApprovalForAll(address,bool)": {
        "details": "Sets or unsets the approval of a given operator An operator is allowed to transfer all tokens of the sender on their behalf",
        "params": {
          "approved": "representing the status of the approval to be set",
          "to": "operator address to set the approval"
        }
      },
      "supportsInterface(bytes4)": {
        "details": "See {IERC165-supportsInterface}. Time complexity O(1), guaranteed to always use less than 30 000 gas."
      }
    },
    "version": 1
  },
  "userdoc": {
    "kind": "user",
    "methods": {},
    "version": 1
  }
}