{
  "contractName": "ERC721MintableComplete",
  "abi": [
    {
      "inputs": [
        {
          "internalType": "string",
          "name": "name",
          "type": "string"
        },
        {
          "internalType": "string",
          "name": "symbol",
          "type": "string"
        }
      ],
      "stateMutability": "nonpayable",
      "type": "constructor"
    },
    {
      "anonymous": false,
      "inputs": [
        {
          "indexed": true,
          "internalType": "address",
          "name": "owner",
          "type": "address"
        },
        {
          "indexed": true,
          "internalType": "address",
          "name": "approved",
          "type": "address"
        },
        {
          "indexed": true,
          "internalType": "uint256",
          "name": "tokenId",
          "type": "uint256"
        }
      ],
      "name": "Approval",
      "type": "event"
    },
    {
      "anonymous": false,
      "inputs": [
        {
          "indexed": true,
          "internalType": "address",
          "name": "owner",
          "type": "address"
        },
        {
          "indexed": true,
          "internalType": "address",
          "name": "operator",
          "type": "address"
        },
        {
          "indexed": false,
          "internalType": "bool",
          "name": "approved",
          "type": "bool"
        }
      ],
      "name": "ApprovalForAll",
      "type": "event"
    },
    {
      "anonymous": false,
      "inputs": [
        {
          "indexed": true,
          "internalType": "address",
          "name": "previousOwner",
          "type": "address"
        },
        {
          "indexed": true,
          "internalType": "address",
          "name": "newOwner",
          "type": "address"
        }
      ],
      "name": "OwnershipTransfered",
      "type": "event"
    },
    {
      "anonymous": false,
      "inputs": [
        {
          "indexed": true,
          "internalType": "address",
          "name": "account",
          "type": "address"
        }
      ],
      "name": "Paused",
      "type": "event"
    },
    {
      "anonymous": false,
      "inputs": [
        {
          "indexed": true,
          "internalType": "address",
          "name": "from",
          "type": "address"
        },
        {
          "indexed": true,
          "internalType": "address",
          "name": "to",
          "type": "address"
        },
        {
          "indexed": true,
          "internalType": "uint256",
          "name": "tokenId",
          "type": "uint256"
        }
      ],
      "name": "Transfer",
      "type": "event"
    },
    {
      "anonymous": false,
      "inputs": [
        {
          "indexed": true,
          "internalType": "address",
          "name": "account",
          "type": "address"
        }
      ],
      "name": "Unpaused",
      "type": "event"
    },
    {
      "inputs": [
        {
          "internalType": "address",
          "name": "to",
          "type": "address"
        },
        {
          "internalType": "uint256",
          "name": "tokenId",
          "type": "uint256"
        }
      ],
      "name": "approve",
      "outputs": [],
      "stateMutability": "nonpayable",
      "type": "function"
    },
    {
      "inputs": [
        {
          "internalType": "address",
          "name": "owner",
          "type": "address"
        }
      ],
      "name": "balanceOf",
      "outputs": [
        {
          "internalType": "uint256",
          "name": "",
          "type": "uint256"
        }
      ],
      "stateMutability": "view",
      "type": "function"
    },
    {
      "inputs": [
        {
          "internalType": "uint256",
          "name": "tokenId",
          "type": "uint256"
        }
      ],
      "name": "getApproved",
      "outputs": [
        {
          "internalType": "address",
          "name": "",
          "type": "address"
        }
      ],
      "stateMutability": "view",
      "type": "function"
    },
    {
      "inputs": [],
      "name": "getBaseTokenURI",
      "outputs": [
        {
          "internalType": "string",
          "name": "",
          "type": "string"
        }
      ],
      "stateMutability": "view",
      "type": "function"
    },
    {
      "inputs": [],
      "name": "getName",
      "outputs": [
        {
          "internalType": "string",
          "name": "",
          "type": "string"
        }
      ],
      "stateMutability": "view",
      "type": "function"
    },
    {
      "inputs": [],
      "name": "getOwner",
      "outputs": [
        {
          "internalType": "address",
          "name": "",
          "type": "address"
        }
      ],
      "stateMutability": "view",
      "type": "function"
    },
    {
      "inputs": [],
      "name": "getSymbol",
      "outputs": [
        {
          "internalType": "string",
          "name": "",
          "type": "string"
        }
      ],
      "stateMutability": "view",
      "type": "function"
    },
    {
      "inputs": [
        {
          "internalType": "address",
          "name": "owner",
          "type": "address"
        },
        {
          "internalType": "address",
          "name": "operator",
          "type": "address"
        }
      ],
      "name": "isApprovedForAll",
      "outputs": [
        {
          "internalType": "bool",
          "name": "",
          "type": "bool"
        }
      ],
      "stateMutability": "view",
      "type": "function"
    },
    {
      "inputs": [
        {
          "internalType": "uint256",
          "name": "tokenId",
          "type": "uint256"
        }
      ],
      "name": "ownerOf",
      "outputs": [
        {
          "internalType": "address",
          "name": "",
          "type": "address"
        }
      ],
      "stateMutability": "view",
      "type": "function"
    },
    {
      "inputs": [
        {
          "internalType": "bool",
          "name": "newState",
          "type": "bool"
        }
      ],
      "name": "pause",
      "outputs": [],
      "stateMutability": "nonpayable",
      "type": "function"
    },
    {
      "inputs": [
        {
          "internalType": "address",
          "name": "from",
          "type": "address"
        },
        {
          "internalType": "address",
          "name": "to",
          "type": "address"
        },
        {
          "internalType": "uint256",
          "name": "tokenId",
          "type": "uint256"
        }
      ],
      "name": "safeTransferFrom",
      "outputs": [],
      "stateMutability": "nonpayable",
      "type": "function"
    },
    {
      "inputs": [
        {
          "internalType": "address",
          "name": "from",
          "type": "address"
        },
        {
          "internalType": "address",
          "name": "to",
          "type": "address"
        },
        {
          "internalType": "uint256",
          "name": "tokenId",
          "type": "uint256"
        },
        {
          "internalType": "bytes",
          "name": "_data",
          "type": "bytes"
        }
      ],
      "name": "safeTransferFrom",
      "outputs": [],
      "stateMutability": "nonpayable",
      "type": "function"
    },
    {
      "inputs": [
        {
          "internalType": "address",
          "name": "to",
          "type": "address"
        },
        {
          "internalType": "bool",
          "name": "approved",
          "type": "bool"
        }
      ],
      "name": "setApprovalForAll",
      "outputs": [],
      "stateMutability": "nonpayable",
      "type": "function"
    },
    {
      "inputs": [
        {
          "internalType": "bytes4",
          "name": "interfaceId",
          "type": "bytes4"
        }
      ],
      "name": "supportsInterface",
      "outputs": [
        {
          "internalType": "bool",
          "name": "",
          "type": "bool"
        }
      ],
      "stateMutability": "view",
      "type": "function"
    },
    {
      "inputs": [
        {
          "internalType": "uint256",
          "name": "index",
          "type": "uint256"
        }
      ],
      "name": "tokenByIndex",
      "outputs": [
        {
          "internalType": "uint256",
          "name": "",
          "type": "uint256"
        }
      ],
      "stateMutability": "view",
      "type": "function"
    },
    {
      "inputs": [
        {
          "internalType": "address",
          "name": "owner",
          "type": "address"
        },
        {
          "internalType": "uint256",
          "name": "index",
          "type": "uint256"
        }
      ],
      "name": "tokenOfOwnerByIndex",
      "outputs": [
        {
          "internalType": "uint256",
          "name": "",
          "type": "uint256"
        }
      ],
      "stateMutability": "view",
      "type": "function"
    },
    {
      "inputs": [
        {
          "internalType": "uint256",
          "name": "tokenId",
          "type": "uint256"
        }
      ],
      "name": "tokenURI",
      "outputs": [
        {
          "internalType": "string",
          "name": "",
          "type": "string"
        }
      ],
      "stateMutability": "view",
      "type": "function"
    },
    {
      "inputs": [],
      "name": "totalSupply",
      "outputs": [
        {
          "internalType": "uint256",
          "name": "",
          "type": "uint256"
        }
      ],
      "stateMutability": "view",
      "type": "function"
    },
    {
      "inputs": [
        {
          "internalType": "address",
          "name": "from",
          "type": "address"
        },
        {
          "internalType": "address",
          "name": "to",
          "type": "address"
        },
        {
          "internalType": "uint256",
          "name": "tokenId",
          "type": "uint256"
        }
      ],
      "name": "transferFrom",
      "outputs": [],
      "stateMutability": "nonpayable",
      "type": "function"
    },
    {
      "inputs": [
        {
          "internalType": "address",
          "name": "newOwner",
          "type": "address"
        }
      ],
      "name": "transferOwnership",
      "outputs": [],
      "stateMutability": "nonpayable",
      "type": "function"
    },
    {
      "inputs": [],
      "name": "unpause",
      "outputs": [],
      "stateMutability": "nonpayable",
      "type": "function"
    },
    {
      "inputs": [
        {
          "internalType": "address",
          "name": "to",
          "type": "address"
        },
        {
          "internalType": "uint256",
          "name": "tokenId",
          "type": "uint256"
        }
      ],
      "name": "mint",
      "outputs": [
        {
          "internalType": "bool",
          "name": "",
          "type": "bool"
        }
      ],
      "stateMutability": "nonpayable",
      "type": "function"
    }
  ],
  "bytecode": "0x60806040523480156200001157600080fd5b506040516200376438038062003764833981810160405281019062000037919062000376565b81816040518060600160405280603f815260200162003725603f9139336000806101000a81548173ffffffffffffffffffffffffffffffffffffffff021916908373ffffffffffffffffffffffffffffffffffffffff16021790555060008060146101000a81548160ff021916908315150217905550620000de7f01ffc9a7000000000000000000000000000000000000000000000000000000006200017c60201b60201c565b620000f66380ac58cd60e01b6200017c60201b60201c565b6200010e63780e9d6360e01b6200017c60201b60201c565b82600a90805190602001906200012692919062000254565b5081600b90805190602001906200013f92919062000254565b5080600c90805190602001906200015892919062000254565b5062000171635b5e139f60e01b6200017c60201b60201c565b5050505050620005dc565b63ffffffff60e01b817bffffffffffffffffffffffffffffffffffffffffffffffffffffffff19161415620001e8576040517f08c379a0000000000000000000000000000000000000000000000000000000008152600401620001df9062000410565b60405180910390fd5b6001806000837bffffffffffffffffffffffffffffffffffffffffffffffffffffffff19167bffffffffffffffffffffffffffffffffffffffffffffffffffffffff1916815260200190815260200160002060006101000a81548160ff02191690831515021790555050565b8280546200026290620004d8565b90600052602060002090601f016020900481019282620002865760008555620002d2565b82601f10620002a157805160ff1916838001178555620002d2565b82800160010185558215620002d2579182015b82811115620002d1578251825591602001919060010190620002b4565b5b509050620002e19190620002e5565b5090565b5b8082111562000300576000816000905550600101620002e6565b5090565b60006200031b62000315846200045b565b62000432565b9050828152602081018484840111156200033457600080fd5b62000341848285620004a2565b509392505050565b600082601f8301126200035b57600080fd5b81516200036d84826020860162000304565b91505092915050565b600080604083850312156200038a57600080fd5b600083015167ffffffffffffffff811115620003a557600080fd5b620003b38582860162000349565b925050602083015167ffffffffffffffff811115620003d157600080fd5b620003df8582860162000349565b9150509250929050565b6000620003f8601c8362000491565b91506200040582620005b3565b602082019050919050565b600060208201905081810360008301526200042b81620003e9565b9050919050565b60006200043e62000451565b90506200044c82826200050e565b919050565b6000604051905090565b600067ffffffffffffffff82111562000479576200047862000573565b5b6200048482620005a2565b9050602081019050919050565b600082825260208201905092915050565b60005b83811015620004c2578082015181840152602081019050620004a5565b83811115620004d2576000848401525b50505050565b60006002820490506001821680620004f157607f821691505b6020821081141562000508576200050762000544565b5b50919050565b6200051982620005a2565b810181811067ffffffffffffffff821117156200053b576200053a62000573565b5b80604052505050565b7f4e487b7100000000000000000000000000000000000000000000000000000000600052602260045260246000fd5b7f4e487b7100000000000000000000000000000000000000000000000000000000600052604160045260246000fd5b6000601f19601f8301169050919050565b7f4552433136353a20696e76616c696420696e7465726661636520696400000000600082015250565b61313980620005ec6000396000f3fe608060405234801561001057600080fd5b50600436106101425760003560e01c806342842e0e116100b8578063a22cb4651161007c578063a22cb46514610389578063b88d4fde146103a5578063bdc32be0146103c1578063c87b56dd146103df578063e985e9c51461040f578063f2fde38b1461043f57610142565b806342842e0e146102bf5780634f6ccce7146102db5780636352211e1461030b57806370a082311461033b578063893d20e81461036b57610142565b806317d7de7c1161010a57806317d7de7c146101fd57806318160ddd1461021b57806323b872dd146102395780632f745c59146102555780633f4ba83a1461028557806340c10f191461028f57610142565b806301ffc9a71461014757806302329a2914610177578063081812fc14610193578063095ea7b3146101c357806315070401146101df575b600080fd5b610161600480360381019061015c9190612651565b61045b565b60405161016e9190612930565b60405180910390f35b610191600480360381019061018c9190612628565b6104c3565b005b6101ad60048036038101906101a891906126a3565b6105b1565b6040516101ba91906128c9565b60405180910390f35b6101dd60048036038101906101d891906125ec565b6105b8565b005b6101e7610765565b6040516101f4919061294b565b60405180910390f35b6102056107f7565b604051610212919061294b565b60405180910390f35b610223610889565b6040516102309190612aad565b60405180910390f35b610253600480360381019061024e91906124e6565b610896565b005b61026f600480360381019061026a91906125ec565b6108b9565b60405161027c9190612aad565b60405180910390f35b61028d610959565b005b6102a960048036038101906102a491906125ec565b610a9c565b6040516102b69190612930565b60405180910390f35b6102d960048036038101906102d491906124e6565b610ba0565b005b6102f560048036038101906102f091906126a3565b610bc0565b6040516103029190612aad565b60405180910390f35b610325600480360381019061032091906126a3565b610c21565b60405161033291906128c9565b60405180910390f35b61035560048036038101906103509190612481565b610c28565b6040516103629190612aad565b60405180910390f35b610373610c78565b60405161038091906128c9565b60405180910390f35b6103a3600480360381019061039e91906125b0565b610ca1565b005b6103bf60048036038101906103ba9190612535565b610dd7565b005b6103c9610dfd565b6040516103d6919061294b565b60405180910390f35b6103f960048036038101906103f491906126a3565b610e8f565b604051610406919061294b565b60405180910390f35b610429600480360381019061042491906124aa565b610f46565b6040516104369190612930565b60405180910390f35b61045960048036038101906104549190612481565b610fda565b005b600060016000837bffffffffffffffffffffffffffffffffffffffffffffffffffffffff19167bffffffffffffffffffffffffffffffffffffffffffffffffffffffff1916815260200190815260200160002060009054906101000a900460ff169050919050565b60008054906101000a900473ffffffffffffffffffffffffffffffffffffffff1673ffffffffffffffffffffffffffffffffffffffff163373ffffffffffffffffffffffffffffffffffffffff1614610551576040517f08c379a000000000000000000000000000000000000000000000000000000000815260040161054890612a8d565b60405180910390fd5b80600060146101000a81548160ff0219169083151502179055503373ffffffffffffffffffffffffffffffffffffffff167f62e78cea01bee320cd4e420270b5ea74000d11b0c9f74754ebdbfc544b05a25860405160405180910390a250565b6000919050565b60006105c382610c21565b90508073ffffffffffffffffffffffffffffffffffffffff168373ffffffffffffffffffffffffffffffffffffffff161415610634576040517f08c379a000000000000000000000000000000000000000000000000000000000815260040161062b90612a2d565b60405180910390fd5b8073ffffffffffffffffffffffffffffffffffffffff163373ffffffffffffffffffffffffffffffffffffffff16148061067457506106738133610f46565b5b6106b3576040517f08c379a00000000000000000000000000000000000000000000000000000000081526004016106aa906129cd565b60405180910390fd5b826003600084815260200190815260200160002060006101000a81548173ffffffffffffffffffffffffffffffffffffffff021916908373ffffffffffffffffffffffffffffffffffffffff160217905550818373ffffffffffffffffffffffffffffffffffffffff168273ffffffffffffffffffffffffffffffffffffffff167f8c5be1e5ebec7d5bd14f71427d1e84f3dd0314c0f7b2291e5b200ac8c7c3b92560405160405180910390a4505050565b6060600b805461077490612cf1565b80601f01602080910402602001604051908101604052809291908181526020018280546107a090612cf1565b80156107ed5780601f106107c2576101008083540402835291602001916107ed565b820191906000526020600020905b8154815290600101906020018083116107d057829003601f168201915b5050505050905090565b6060600a805461080690612cf1565b80601f016020809104026020016040519081016040528092919081815260200182805461083290612cf1565b801561087f5780601f106108545761010080835404028352916020019161087f565b820191906000526020600020905b81548152906001019060200180831161086257829003601f168201915b5050505050905090565b6000600880549050905090565b6108a03382611155565b6108a957600080fd5b6108b48383836111ea565b505050565b60006108c483610c28565b82106108cf57600080fd5b600660008473ffffffffffffffffffffffffffffffffffffffff1673ffffffffffffffffffffffffffffffffffffffff1681526020019081526020016000208281548110610946577f4e487b7100000000000000000000000000000000000000000000000000000000600052603260045260246000fd5b9060005260206000200154905092915050565b60008054906101000a900473ffffffffffffffffffffffffffffffffffffffff1673ffffffffffffffffffffffffffffffffffffffff163373ffffffffffffffffffffffffffffffffffffffff16146109e7576040517f08c379a00000000000000000000000000000000000000000000000000000000081526004016109de90612a8d565b60405180910390fd5b60011515600060149054906101000a900460ff16151514610a3d576040517f08c379a0000000000000000000000000000000000000000000000000000000008152600401610a3490612a6d565b60405180910390fd5b60008060146101000a81548160ff0219169083151502179055503373ffffffffffffffffffffffffffffffffffffffff167f5db9ee0a495bf2e6ff9c91a7834c1ba4fdd244a5e8aa4e537bd38aeae4b073aa60405160405180910390a2565b60008060009054906101000a900473ffffffffffffffffffffffffffffffffffffffff1673ffffffffffffffffffffffffffffffffffffffff163373ffffffffffffffffffffffffffffffffffffffff1614610b2d576040517f08c379a0000000000000000000000000000000000000000000000000000000008152600401610b2490612a8d565b60405180910390fd5b60001515600060149054906101000a900460ff16151514610b83576040517f08c379a0000000000000000000000000000000000000000000000000000000008152600401610b7a9061296d565b60405180910390fd5b610b8d8383611419565b610b968261143a565b6001905092915050565b610bbb83838360405180602001604052806000815250610dd7565b505050565b6000610bca610889565b8210610bd557600080fd5b60088281548110610c0f577f4e487b7100000000000000000000000000000000000000000000000000000000600052603260045260246000fd5b90600052602060002001549050919050565b6000919050565b6000610c71600460008473ffffffffffffffffffffffffffffffffffffffff1673ffffffffffffffffffffffffffffffffffffffff168152602001908152602001600020611548565b9050919050565b60008060009054906101000a900473ffffffffffffffffffffffffffffffffffffffff16905090565b3373ffffffffffffffffffffffffffffffffffffffff168273ffffffffffffffffffffffffffffffffffffffff161415610cda57600080fd5b80600560003373ffffffffffffffffffffffffffffffffffffffff1673ffffffffffffffffffffffffffffffffffffffff16815260200190815260200160002060008473ffffffffffffffffffffffffffffffffffffffff1673ffffffffffffffffffffffffffffffffffffffff16815260200190815260200160002060006101000a81548160ff0219169083151502179055508173ffffffffffffffffffffffffffffffffffffffff163373ffffffffffffffffffffffffffffffffffffffff167f17307eab39ab6107e8899845ad3d59bd9653f200f220920489ca2b5937696c3183604051610dcb9190612930565b60405180910390a35050565b610de2848484610896565b610dee84848484611556565b610df757600080fd5b50505050565b6060600c8054610e0c90612cf1565b80601f0160208091040260200160405190810160405280929190818152602001828054610e3890612cf1565b8015610e855780601f10610e5a57610100808354040283529160200191610e85565b820191906000526020600020905b815481529060010190602001808311610e6857829003601f168201915b5050505050905090565b6060610e9a8261166d565b610ea357600080fd5b600d60008381526020019081526020016000208054610ec190612cf1565b80601f0160208091040260200160405190810160405280929190818152602001828054610eed90612cf1565b8015610f3a5780601f10610f0f57610100808354040283529160200191610f3a565b820191906000526020600020905b815481529060010190602001808311610f1d57829003601f168201915b50505050509050919050565b6000600560008473ffffffffffffffffffffffffffffffffffffffff1673ffffffffffffffffffffffffffffffffffffffff16815260200190815260200160002060008373ffffffffffffffffffffffffffffffffffffffff1673ffffffffffffffffffffffffffffffffffffffff16815260200190815260200160002060009054906101000a900460ff16905092915050565b60008054906101000a900473ffffffffffffffffffffffffffffffffffffffff1673ffffffffffffffffffffffffffffffffffffffff163373ffffffffffffffffffffffffffffffffffffffff1614611068576040517f08c379a000000000000000000000000000000000000000000000000000000000815260040161105f90612a8d565b60405180910390fd5b600073ffffffffffffffffffffffffffffffffffffffff168173ffffffffffffffffffffffffffffffffffffffff1614156110d8576040517f08c379a00000000000000000000000000000000000000000000000000000000081526004016110cf9061298d565b60405180910390fd5b8073ffffffffffffffffffffffffffffffffffffffff1660008054906101000a900473ffffffffffffffffffffffffffffffffffffffff1673ffffffffffffffffffffffffffffffffffffffff167f0d18b5fd22306e373229b9439188228edca81207d1667f604daf6cef8aa3ee6760405160405180910390a350565b60008061116183610c21565b90508073ffffffffffffffffffffffffffffffffffffffff168473ffffffffffffffffffffffffffffffffffffffff1614806111d057508373ffffffffffffffffffffffffffffffffffffffff166111b8846105b1565b73ffffffffffffffffffffffffffffffffffffffff16145b806111e157506111e08185610f46565b5b91505092915050565b6111f381610c21565b73ffffffffffffffffffffffffffffffffffffffff168373ffffffffffffffffffffffffffffffffffffffff1614611260576040517f08c379a000000000000000000000000000000000000000000000000000000000815260040161125790612a0d565b60405180910390fd5b600073ffffffffffffffffffffffffffffffffffffffff168273ffffffffffffffffffffffffffffffffffffffff1614156112d0576040517f08c379a00000000000000000000000000000000000000000000000000000000081526004016112c790612a4d565b60405180910390fd5b6112d9816116df565b611320600460008573ffffffffffffffffffffffffffffffffffffffff1673ffffffffffffffffffffffffffffffffffffffff16815260200190815260200160002061179d565b611367600460008473ffffffffffffffffffffffffffffffffffffffff1673ffffffffffffffffffffffffffffffffffffffff1681526020019081526020016000206117c0565b816002600083815260200190815260200160002060006101000a81548173ffffffffffffffffffffffffffffffffffffffff021916908373ffffffffffffffffffffffffffffffffffffffff160217905550808273ffffffffffffffffffffffffffffffffffffffff168473ffffffffffffffffffffffffffffffffffffffff167fddf252ad1be2c89b69c2b068fc378daa952ba7f163c4a11628f55a4df523b3ef60405160405180910390a4505050565b61142382826117df565b61142d82826119ea565b61143681611aae565b5050565b6114438161166d565b611482576040517f08c379a0000000000000000000000000000000000000000000000000000000008152600401611479906129ad565b60405180910390fd5b61151e600c805461149290612cf1565b80601f01602080910402602001604051908101604052809291908181526020018280546114be90612cf1565b801561150b5780601f106114e05761010080835404028352916020019161150b565b820191906000526020600020905b8154815290600101906020018083116114ee57829003601f168201915b505050505061151983611af7565b611cb3565b600d6000838152602001908152602001600020908051906020019061154492919061230d565b5050565b600081600001549050919050565b60006115778473ffffffffffffffffffffffffffffffffffffffff16611cf7565b6115845760019050611665565b60008473ffffffffffffffffffffffffffffffffffffffff1663150b7a02338887876040518563ffffffff1660e01b81526004016115c594939291906128e4565b602060405180830381600087803b1580156115df57600080fd5b505af11580156115f3573d6000803e3d6000fd5b505050506040513d601f19601f82011682018060405250810190611617919061267a565b905063150b7a0260e01b7bffffffffffffffffffffffffffffffffffffffffffffffffffffffff1916817bffffffffffffffffffffffffffffffffffffffffffffffffffffffff1916149150505b949350505050565b6000806002600084815260200190815260200160002060009054906101000a900473ffffffffffffffffffffffffffffffffffffffff169050600073ffffffffffffffffffffffffffffffffffffffff168173ffffffffffffffffffffffffffffffffffffffff161415915050919050565b600073ffffffffffffffffffffffffffffffffffffffff166003600083815260200190815260200160002060009054906101000a900473ffffffffffffffffffffffffffffffffffffffff1673ffffffffffffffffffffffffffffffffffffffff161461179a5760006003600083815260200190815260200160002060006101000a81548173ffffffffffffffffffffffffffffffffffffffff021916908373ffffffffffffffffffffffffffffffffffffffff1602179055505b50565b6117b560018260000154611d4290919063ffffffff16565b816000018190555050565b60018160000160008282546117d59190612b56565b9250508190555050565b600073ffffffffffffffffffffffffffffffffffffffff166002600083815260200190815260200160002060009054906101000a900473ffffffffffffffffffffffffffffffffffffffff1673ffffffffffffffffffffffffffffffffffffffff1614611881576040517f08c379a0000000000000000000000000000000000000000000000000000000008152600401611878906129ed565b60405180910390fd5b600073ffffffffffffffffffffffffffffffffffffffff168273ffffffffffffffffffffffffffffffffffffffff1614156118f1576040517f08c379a00000000000000000000000000000000000000000000000000000000081526004016118e890612a4d565b60405180910390fd5b816002600083815260200190815260200160002060006101000a81548173ffffffffffffffffffffffffffffffffffffffff021916908373ffffffffffffffffffffffffffffffffffffffff16021790555061198a600460008473ffffffffffffffffffffffffffffffffffffffff1673ffffffffffffffffffffffffffffffffffffffff1681526020019081526020016000206117c0565b808273ffffffffffffffffffffffffffffffffffffffff16600073ffffffffffffffffffffffffffffffffffffffff167fddf252ad1be2c89b69c2b068fc378daa952ba7f163c4a11628f55a4df523b3ef60405160405180910390a45050565b600660008373ffffffffffffffffffffffffffffffffffffffff1673ffffffffffffffffffffffffffffffffffffffff168152602001908152602001600020805490506007600083815260200190815260200160002081905550600660008373ffffffffffffffffffffffffffffffffffffffff1673ffffffffffffffffffffffffffffffffffffffff1681526020019081526020016000208190806001815401808255809150506001900390600052602060002001600090919091909150555050565b6008805490506009600083815260200190815260200160002081905550600881908060018154018082558091505060019003906000526020600020016000909190919091505550565b60606000821415611b3f576040518060400160405280600181526020017f30000000000000000000000000000000000000000000000000000000000000008152509050611cae565b600082905060005b60008214611b71578080611b5a90612d54565b915050600a82611b6a9190612bac565b9150611b47565b60008167ffffffffffffffff811115611bb3577f4e487b7100000000000000000000000000000000000000000000000000000000600052604160045260246000fd5b6040519080825280601f01601f191660200182016040528015611be55781602001600182028036833780820191505090505b5090506000600183611bf79190612bdd565b90505b60008614611ca657600a86611c0f9190612d9d565b6030611c1b9190612b56565b60f81b828280611c2a90612cc7565b935081518110611c63577f4e487b7100000000000000000000000000000000000000000000000000000000600052603260045260246000fd5b60200101907effffffffffffffffffffffffffffffffffffffffffffffffffffffffffffff1916908160001a905350600a86611c9f9190612bac565b9550611bfa565b819450505050505b919050565b6060611cef8383604051806020016040528060008152506040518060200160405280600081525060405180602001604052806000815250611d8c565b905092915050565b60008060007fc5d2460186f7233c927e7db2dcc703c0e500b653ca82273b7bfad8045d85a47060001b9050833f9150808214158015611d3957506000801b8214155b92505050919050565b6000611d8483836040518060400160405280601e81526020017f536166654d6174683a207375627472616374696f6e206f766572666c6f7700008152506122a9565b905092915050565b606060008690506000869050600086905060008690506000869050600081518351855187518951611dbd9190612b56565b611dc79190612b56565b611dd19190612b56565b611ddb9190612b56565b67ffffffffffffffff811115611e1a577f4e487b7100000000000000000000000000000000000000000000000000000000600052604160045260246000fd5b6040519080825280601f01601f191660200182016040528015611e4c5781602001600182028036833780820191505090505b5090506000819050600080600090505b8851811015611f3057888181518110611e9e577f4e487b7100000000000000000000000000000000000000000000000000000000600052603260045260246000fd5b602001015160f81c60f81b838380611eb590612d54565b945081518110611eee577f4e487b7100000000000000000000000000000000000000000000000000000000600052603260045260246000fd5b60200101907effffffffffffffffffffffffffffffffffffffffffffffffffffffffffffff1916908160001a9053508080611f2890612d54565b915050611e5c565b600090505b875181101561200957878181518110611f77577f4e487b7100000000000000000000000000000000000000000000000000000000600052603260045260246000fd5b602001015160f81c60f81b838380611f8e90612d54565b945081518110611fc7577f4e487b7100000000000000000000000000000000000000000000000000000000600052603260045260246000fd5b60200101907effffffffffffffffffffffffffffffffffffffffffffffffffffffffffffff1916908160001a905350808061200190612d54565b915050611f35565b600090505b86518110156120e257868181518110612050577f4e487b7100000000000000000000000000000000000000000000000000000000600052603260045260246000fd5b602001015160f81c60f81b83838061206790612d54565b9450815181106120a0577f4e487b7100000000000000000000000000000000000000000000000000000000600052603260045260246000fd5b60200101907effffffffffffffffffffffffffffffffffffffffffffffffffffffffffffff1916908160001a90535080806120da90612d54565b91505061200e565b600090505b85518110156121bb57858181518110612129577f4e487b7100000000000000000000000000000000000000000000000000000000600052603260045260246000fd5b602001015160f81c60f81b83838061214090612d54565b945081518110612179577f4e487b7100000000000000000000000000000000000000000000000000000000600052603260045260246000fd5b60200101907effffffffffffffffffffffffffffffffffffffffffffffffffffffffffffff1916908160001a90535080806121b390612d54565b9150506120e7565b600090505b845181101561229457848181518110612202577f4e487b7100000000000000000000000000000000000000000000000000000000600052603260045260246000fd5b602001015160f81c60f81b83838061221990612d54565b945081518110612252577f4e487b7100000000000000000000000000000000000000000000000000000000600052603260045260246000fd5b60200101907effffffffffffffffffffffffffffffffffffffffffffffffffffffffffffff1916908160001a905350808061228c90612d54565b9150506121c0565b82995050505050505050505095945050505050565b60008383111582906122f1576040517f08c379a00000000000000000000000000000000000000000000000000000000081526004016122e8919061294b565b60405180910390fd5b50600083856123009190612bdd565b9050809150509392505050565b82805461231990612cf1565b90600052602060002090601f01602090048101928261233b5760008555612382565b82601f1061235457805160ff1916838001178555612382565b82800160010185558215612382579182015b82811115612381578251825591602001919060010190612366565b5b50905061238f9190612393565b5090565b5b808211156123ac576000816000905550600101612394565b5090565b60006123c36123be84612aed565b612ac8565b9050828152602081018484840111156123db57600080fd5b6123e6848285612c85565b509392505050565b6000813590506123fd816130a7565b92915050565b600081359050612412816130be565b92915050565b600081359050612427816130d5565b92915050565b60008151905061243c816130d5565b92915050565b600082601f83011261245357600080fd5b81356124638482602086016123b0565b91505092915050565b60008135905061247b816130ec565b92915050565b60006020828403121561249357600080fd5b60006124a1848285016123ee565b91505092915050565b600080604083850312156124bd57600080fd5b60006124cb858286016123ee565b92505060206124dc858286016123ee565b9150509250929050565b6000806000606084860312156124fb57600080fd5b6000612509868287016123ee565b935050602061251a868287016123ee565b925050604061252b8682870161246c565b9150509250925092565b6000806000806080858703121561254b57600080fd5b6000612559878288016123ee565b945050602061256a878288016123ee565b935050604061257b8782880161246c565b925050606085013567ffffffffffffffff81111561259857600080fd5b6125a487828801612442565b91505092959194509250565b600080604083850312156125c357600080fd5b60006125d1858286016123ee565b92505060206125e285828601612403565b9150509250929050565b600080604083850312156125ff57600080fd5b600061260d858286016123ee565b925050602061261e8582860161246c565b9150509250929050565b60006020828403121561263a57600080fd5b600061264884828501612403565b91505092915050565b60006020828403121561266357600080fd5b600061267184828501612418565b91505092915050565b60006020828403121561268c57600080fd5b600061269a8482850161242d565b91505092915050565b6000602082840312156126b557600080fd5b60006126c38482850161246c565b91505092915050565b6126d581612c11565b82525050565b6126e481612c23565b82525050565b60006126f582612b1e565b6126ff8185612b34565b935061270f818560208601612c94565b61271881612e8a565b840191505092915050565b600061272e82612b29565b6127388185612b45565b9350612748818560208601612c94565b61275181612e8a565b840191505092915050565b6000612769601d83612b45565b915061277482612e9b565b602082019050919050565b600061278c601383612b45565b915061279782612ec4565b602082019050919050565b60006127af601a83612b45565b91506127ba82612eed565b602082019050919050565b60006127d2602b83612b45565b91506127dd82612f16565b604082019050919050565b60006127f5601483612b45565b915061280082612f65565b602082019050919050565b6000612818602183612b45565b915061282382612f8e565b604082019050919050565b600061283b601a83612b45565b915061284682612fdd565b602082019050919050565b600061285e601283612b45565b915061286982613006565b602082019050919050565b6000612881601b83612b45565b915061288c8261302f565b602082019050919050565b60006128a4602c83612b45565b91506128af82613058565b604082019050919050565b6128c381612c7b565b82525050565b60006020820190506128de60008301846126cc565b92915050565b60006080820190506128f960008301876126cc565b61290660208301866126cc565b61291360408301856128ba565b818103606083015261292581846126ea565b905095945050505050565b600060208201905061294560008301846126db565b92915050565b600060208201905081810360008301526129658184612723565b905092915050565b600060208201905081810360008301526129868161275c565b9050919050565b600060208201905081810360008301526129a68161277f565b9050919050565b600060208201905081810360008301526129c6816127a2565b9050919050565b600060208201905081810360008301526129e6816127c5565b9050919050565b60006020820190508181036000830152612a06816127e8565b9050919050565b60006020820190508181036000830152612a268161280b565b9050919050565b60006020820190508181036000830152612a468161282e565b9050919050565b60006020820190508181036000830152612a6681612851565b9050919050565b60006020820190508181036000830152612a8681612874565b9050919050565b60006020820190508181036000830152612aa681612897565b9050919050565b6000602082019050612ac260008301846128ba565b92915050565b6000612ad2612ae3565b9050612ade8282612d23565b919050565b6000604051905090565b600067ffffffffffffffff821115612b0857612b07612e5b565b5b612b1182612e8a565b9050602081019050919050565b600081519050919050565b600081519050919050565b600082825260208201905092915050565b600082825260208201905092915050565b6000612b6182612c7b565b9150612b6c83612c7b565b9250827fffffffffffffffffffffffffffffffffffffffffffffffffffffffffffffffff03821115612ba157612ba0612dce565b5b828201905092915050565b6000612bb782612c7b565b9150612bc283612c7b565b925082612bd257612bd1612dfd565b5b828204905092915050565b6000612be882612c7b565b9150612bf383612c7b565b925082821015612c0657612c05612dce565b5b828203905092915050565b6000612c1c82612c5b565b9050919050565b60008115159050919050565b60007fffffffff0000000000000000000000000000000000000000000000000000000082169050919050565b600073ffffffffffffffffffffffffffffffffffffffff82169050919050565b6000819050919050565b82818337600083830152505050565b60005b83811015612cb2578082015181840152602081019050612c97565b83811115612cc1576000848401525b50505050565b6000612cd282612c7b565b91506000821415612ce657612ce5612dce565b5b600182039050919050565b60006002820490506001821680612d0957607f821691505b60208210811415612d1d57612d1c612e2c565b5b50919050565b612d2c82612e8a565b810181811067ffffffffffffffff82111715612d4b57612d4a612e5b565b5b80604052505050565b6000612d5f82612c7b565b91507fffffffffffffffffffffffffffffffffffffffffffffffffffffffffffffffff821415612d9257612d91612dce565b5b600182019050919050565b6000612da882612c7b565b9150612db383612c7b565b925082612dc357612dc2612dfd565b5b828206905092915050565b7f4e487b7100000000000000000000000000000000000000000000000000000000600052601160045260246000fd5b7f4e487b7100000000000000000000000000000000000000000000000000000000600052601260045260246000fd5b7f4e487b7100000000000000000000000000000000000000000000000000000000600052602260045260246000fd5b7f4e487b7100000000000000000000000000000000000000000000000000000000600052604160045260246000fd5b6000601f19601f8301169050919050565b7f436f6e7472616374206e6565647320746f20626520756e706175736564000000600082015250565b7f4e6f7420612076616c6964206164647265737300000000000000000000000000600082015250565b7f54686520746f6b656e496420646f6573206e6f74206578697374000000000000600082015250565b7f43616c6c6572206973206e6f7420617574686f72697a656420616761696e737460008201527f207468697320746f6b656e000000000000000000000000000000000000000000602082015250565b7f546f6b656e2065786973747320616c7265616479000000000000000000000000600082015250565b7f4f6e6c7920746f6b656e206f776e65722063616e20706572666f726d2074686960008201527f7300000000000000000000000000000000000000000000000000000000000000602082015250565b7f43616e6e6f7420617070726f766520746f20796f757273656c66000000000000600082015250565b7f496e76616c696420746f20616464726573730000000000000000000000000000600082015250565b7f436f6e7472616374206e6565647320746f206265207061757365640000000000600082015250565b7f4f6e6c7920636f6e74726163742773206f776e65722063616e2063616c6c207460008201527f6869732066756e6374696f6e0000000000000000000000000000000000000000602082015250565b6130b081612c11565b81146130bb57600080fd5b50565b6130c781612c23565b81146130d257600080fd5b50565b6130de81612c2f565b81146130e957600080fd5b50565b6130f581612c7b565b811461310057600080fd5b5056fea2646970667358221220bd98a980544d402188239ea97b7a3774aa1040adfe96a79266ff2ec05758423b64736f6c6343000801003368747470733a2f2f73332d75732d776573742d322e616d617a6f6e6177732e636f6d2f756461636974792d626c6f636b636861696e2f63617073746f6e652f",
  "immutableReferences": {},
  "source": "// SPDX-License-Identifier: LGPL-3.0-only\n// This file is LGPL3 Licensed\npragma solidity 0.8.1;\n\nimport \"./openzeppelin/ERC721Metadata.sol\";\n\ncontract ERC721MintableComplete is ERC721Metadata {\n    //  1) Pass in appropriate values for the inherited ERC721Metadata contract\n    //  - make the base token uri: https://s3-us-west-2.amazonaws.com/udacity-blockchain/capstone/\n    constructor(string memory name, string memory symbol)\n        ERC721Metadata(\n            name,\n            symbol,\n            \"https://s3-us-west-2.amazonaws.com/udacity-blockchain/capstone/\"\n        )\n    {}\n\n    //  2) create a public mint() that does the following:\n    //  -can only be executed by the contract owner\n    //  -takes in a 'to' address, tokenId as parameters\n    //  -returns a true boolean upon completion of the function\n    //  -calls the superclass mint and setTokenURI functions\n    function mint(address to, uint256 tokenId)\n        public\n        onlyOwner\n        whenNotPaused\n        returns (bool)\n    {\n        super._mint(to, tokenId);\n        setTokenURI(tokenId);\n        return true;\n    }\n}\n",
  "sourcePath": "/media/indigo/backup/AXEL/Personal/Tutorials/blockchain-capstone/Blockchain-Capstone/eth-contracts/contracts/ERC721MintableComplete.sol",
  "compiler": {
    "name": "solc",
    "version": "0.8.1+commit.df193b15.Emscripten.clang"
  },
  "schemaVersion": "3.3.3",
  "updatedAt": "2021-09-30T21:47:02.638Z",
  "devdoc": {
    "kind": "dev",
    "methods": {
      "isApprovedForAll(address,address)": {
        "details": "Tells whether an operator is approved by a given owner",
        "params": {
          "operator": "operator address which you want to query the approval of",
          "owner": "owner address which you want to query the approval of"
        },
        "returns": {
          "_0": "bool whether the given operator is approved by the given owner"
        }
      },
      "setApprovalForAll(address,bool)": {
        "details": "Sets or unsets the approval of a given operator An operator is allowed to transfer all tokens of the sender on their behalf",
        "params": {
          "approved": "representing the status of the approval to be set",
          "to": "operator address to set the approval"
        }
      },
      "supportsInterface(bytes4)": {
        "details": "See {IERC165-supportsInterface}. Time complexity O(1), guaranteed to always use less than 30 000 gas."
      },
      "tokenByIndex(uint256)": {
        "details": "Gets the token ID at a given index of all the tokens in this contract Reverts if the index is greater or equal to the total number of tokens",
        "params": {
          "index": "uint256 representing the index to be accessed of the tokens list"
        },
        "returns": {
          "_0": "uint256 token ID at the given index of the tokens list"
        }
      },
      "tokenOfOwnerByIndex(address,uint256)": {
        "details": "Gets the token ID at a given index of the tokens list of the requested owner",
        "params": {
          "index": "uint256 representing the index to be accessed of the requested tokens list",
          "owner": "address owning the tokens list to be accessed"
        },
        "returns": {
          "_0": "uint256 token ID at the given index of the tokens list owned by the requested address"
        }
      },
      "totalSupply()": {
        "details": "Gets the total amount of tokens stored by the contract",
        "returns": {
          "_0": "uint256 representing the total amount of tokens"
        }
      }
    },
    "version": 1
  },
  "userdoc": {
    "kind": "user",
    "methods": {},
    "version": 1
  }
}