{
  "contractName": "Ownable",
  "abi": [
    {
      "inputs": [],
      "stateMutability": "nonpayable",
      "type": "constructor"
    },
    {
      "anonymous": false,
      "inputs": [
        {
          "indexed": true,
          "internalType": "address",
          "name": "previousOwner",
          "type": "address"
        },
        {
          "indexed": true,
          "internalType": "address",
          "name": "newOwner",
          "type": "address"
        }
      ],
      "name": "OwnershipTransfered",
      "type": "event"
    },
    {
      "inputs": [
        {
          "internalType": "address",
          "name": "newOwner",
          "type": "address"
        }
      ],
      "name": "transferOwnership",
      "outputs": [],
      "stateMutability": "nonpayable",
      "type": "function"
    },
    {
      "inputs": [],
      "name": "getOwner",
      "outputs": [
        {
          "internalType": "address",
          "name": "",
          "type": "address"
        }
      ],
      "stateMutability": "view",
      "type": "function"
    }
  ],
  "bytecode": "0x608060405234801561001057600080fd5b50336000806101000a81548173ffffffffffffffffffffffffffffffffffffffff021916908373ffffffffffffffffffffffffffffffffffffffff16021790555061040f806100606000396000f3fe608060405234801561001057600080fd5b50600436106100365760003560e01c8063893d20e81461003b578063f2fde38b14610059575b600080fd5b610043610075565b60405161005091906102ac565b60405180910390f35b610073600480360381019061006e919061022e565b61009e565b005b60008060009054906101000a900473ffffffffffffffffffffffffffffffffffffffff16905090565b60008054906101000a900473ffffffffffffffffffffffffffffffffffffffff1673ffffffffffffffffffffffffffffffffffffffff163373ffffffffffffffffffffffffffffffffffffffff161461012c576040517f08c379a0000000000000000000000000000000000000000000000000000000008152600401610123906102e7565b60405180910390fd5b600073ffffffffffffffffffffffffffffffffffffffff168173ffffffffffffffffffffffffffffffffffffffff16141561019c576040517f08c379a0000000000000000000000000000000000000000000000000000000008152600401610193906102c7565b60405180910390fd5b8073ffffffffffffffffffffffffffffffffffffffff1660008054906101000a900473ffffffffffffffffffffffffffffffffffffffff1673ffffffffffffffffffffffffffffffffffffffff167f0d18b5fd22306e373229b9439188228edca81207d1667f604daf6cef8aa3ee6760405160405180910390a350565b600081359050610228816103c2565b92915050565b60006020828403121561024057600080fd5b600061024e84828501610219565b91505092915050565b61026081610318565b82525050565b6000610273601383610307565b915061027e8261034a565b602082019050919050565b6000610296602c83610307565b91506102a182610373565b604082019050919050565b60006020820190506102c16000830184610257565b92915050565b600060208201905081810360008301526102e081610266565b9050919050565b6000602082019050818103600083015261030081610289565b9050919050565b600082825260208201905092915050565b60006103238261032a565b9050919050565b600073ffffffffffffffffffffffffffffffffffffffff82169050919050565b7f4e6f7420612076616c6964206164647265737300000000000000000000000000600082015250565b7f4f6e6c7920636f6e74726163742773206f776e65722063616e2063616c6c207460008201527f6869732066756e6374696f6e0000000000000000000000000000000000000000602082015250565b6103cb81610318565b81146103d657600080fd5b5056fea26469706673582212206865092ef62ddb40901993cff7fe19b1851e518bcc2aa1a2b1fe6fccb27424f264736f6c63430008010033",
  "immutableReferences": {},
  "source": "// SPDX-License-Identifier: LGPL-3.0-only\n// This file is LGPL3 Licensed\npragma solidity 0.8.1;\n\ncontract Ownable {\n    address payable private _owner;\n\n    event OwnershipTransfered(\n        address indexed previousOwner,\n        address indexed newOwner\n    );\n\n    modifier onlyOwner() {\n        require(\n            msg.sender == _owner,\n            \"Only contract's owner can call this function\"\n        );\n        _;\n    }\n\n    constructor() {\n        _owner = payable(msg.sender);\n    }\n\n    function transferOwnership(address newOwner) public onlyOwner {\n        // TODO add functionality to transfer control of the contract to a newOwner.\n        // make sure the new owner is a real address\n        require(newOwner != address(0), \"Not a valid address\");\n        emit OwnershipTransfered(_owner, newOwner);\n    }\n\n    function getOwner() public view returns (address) {\n        return _owner;\n    }\n}\n",
  "sourcePath": "/media/indigo/backup/AXEL/Personal/Tutorials/blockchain-capstone/Blockchain-Capstone/eth-contracts/contracts/utils/Ownable.sol",
  "compiler": {
    "name": "solc",
    "version": "0.8.1+commit.df193b15.Emscripten.clang"
  },
  "schemaVersion": "3.3.3",
  "updatedAt": "2021-09-28T20:16:15.302Z",
  "devdoc": {
    "kind": "dev",
    "methods": {},
    "version": 1
  },
  "userdoc": {
    "kind": "user",
    "methods": {},
    "version": 1
  }
}