{
  "contractName": "SolnSquareVerifier",
  "abi": [
    {
      "inputs": [
        {
          "internalType": "address",
          "name": "verifierAddress",
          "type": "address"
        },
        {
          "internalType": "string",
          "name": "name",
          "type": "string"
        },
        {
          "internalType": "string",
          "name": "symbol",
          "type": "string"
        }
      ],
      "stateMutability": "nonpayable",
      "type": "constructor"
    },
    {
      "anonymous": false,
      "inputs": [
        {
          "indexed": true,
          "internalType": "address",
          "name": "owner",
          "type": "address"
        },
        {
          "indexed": true,
          "internalType": "address",
          "name": "approved",
          "type": "address"
        },
        {
          "indexed": true,
          "internalType": "uint256",
          "name": "tokenId",
          "type": "uint256"
        }
      ],
      "name": "Approval",
      "type": "event"
    },
    {
      "anonymous": false,
      "inputs": [
        {
          "indexed": true,
          "internalType": "address",
          "name": "owner",
          "type": "address"
        },
        {
          "indexed": true,
          "internalType": "address",
          "name": "operator",
          "type": "address"
        },
        {
          "indexed": false,
          "internalType": "bool",
          "name": "approved",
          "type": "bool"
        }
      ],
      "name": "ApprovalForAll",
      "type": "event"
    },
    {
      "anonymous": false,
      "inputs": [
        {
          "indexed": true,
          "internalType": "address",
          "name": "previousOwner",
          "type": "address"
        },
        {
          "indexed": true,
          "internalType": "address",
          "name": "newOwner",
          "type": "address"
        }
      ],
      "name": "OwnershipTransfered",
      "type": "event"
    },
    {
      "anonymous": false,
      "inputs": [
        {
          "indexed": true,
          "internalType": "address",
          "name": "account",
          "type": "address"
        }
      ],
      "name": "Paused",
      "type": "event"
    },
    {
      "anonymous": false,
      "inputs": [
        {
          "indexed": false,
          "internalType": "uint256",
          "name": "solutionIndex",
          "type": "uint256"
        },
        {
          "indexed": true,
          "internalType": "address",
          "name": "solutionAddress",
          "type": "address"
        }
      ],
      "name": "SolutionAdded",
      "type": "event"
    },
    {
      "anonymous": false,
      "inputs": [
        {
          "indexed": true,
          "internalType": "address",
          "name": "from",
          "type": "address"
        },
        {
          "indexed": true,
          "internalType": "address",
          "name": "to",
          "type": "address"
        },
        {
          "indexed": true,
          "internalType": "uint256",
          "name": "tokenId",
          "type": "uint256"
        }
      ],
      "name": "Transfer",
      "type": "event"
    },
    {
      "anonymous": false,
      "inputs": [
        {
          "indexed": true,
          "internalType": "address",
          "name": "account",
          "type": "address"
        }
      ],
      "name": "Unpaused",
      "type": "event"
    },
    {
      "inputs": [
        {
          "internalType": "address",
          "name": "to",
          "type": "address"
        },
        {
          "internalType": "uint256",
          "name": "tokenId",
          "type": "uint256"
        }
      ],
      "name": "approve",
      "outputs": [],
      "stateMutability": "nonpayable",
      "type": "function"
    },
    {
      "inputs": [
        {
          "internalType": "address",
          "name": "owner",
          "type": "address"
        }
      ],
      "name": "balanceOf",
      "outputs": [
        {
          "internalType": "uint256",
          "name": "",
          "type": "uint256"
        }
      ],
      "stateMutability": "view",
      "type": "function",
      "constant": true
    },
    {
      "inputs": [
        {
          "internalType": "uint256",
          "name": "tokenId",
          "type": "uint256"
        }
      ],
      "name": "getApproved",
      "outputs": [
        {
          "internalType": "address",
          "name": "",
          "type": "address"
        }
      ],
      "stateMutability": "view",
      "type": "function",
      "constant": true
    },
    {
      "inputs": [],
      "name": "getBaseTokenURI",
      "outputs": [
        {
          "internalType": "string",
          "name": "",
          "type": "string"
        }
      ],
      "stateMutability": "view",
      "type": "function",
      "constant": true
    },
    {
      "inputs": [],
      "name": "getName",
      "outputs": [
        {
          "internalType": "string",
          "name": "",
          "type": "string"
        }
      ],
      "stateMutability": "view",
      "type": "function",
      "constant": true
    },
    {
      "inputs": [],
      "name": "getOwner",
      "outputs": [
        {
          "internalType": "address",
          "name": "",
          "type": "address"
        }
      ],
      "stateMutability": "view",
      "type": "function",
      "constant": true
    },
    {
      "inputs": [],
      "name": "getSymbol",
      "outputs": [
        {
          "internalType": "string",
          "name": "",
          "type": "string"
        }
      ],
      "stateMutability": "view",
      "type": "function",
      "constant": true
    },
    {
      "inputs": [
        {
          "internalType": "address",
          "name": "owner",
          "type": "address"
        },
        {
          "internalType": "address",
          "name": "operator",
          "type": "address"
        }
      ],
      "name": "isApprovedForAll",
      "outputs": [
        {
          "internalType": "bool",
          "name": "",
          "type": "bool"
        }
      ],
      "stateMutability": "view",
      "type": "function",
      "constant": true
    },
    {
      "inputs": [
        {
          "internalType": "address",
          "name": "to",
          "type": "address"
        },
        {
          "internalType": "uint256",
          "name": "tokenId",
          "type": "uint256"
        }
      ],
      "name": "mint",
      "outputs": [
        {
          "internalType": "bool",
          "name": "",
          "type": "bool"
        }
      ],
      "stateMutability": "nonpayable",
      "type": "function"
    },
    {
      "inputs": [
        {
          "internalType": "uint256",
          "name": "tokenId",
          "type": "uint256"
        }
      ],
      "name": "ownerOf",
      "outputs": [
        {
          "internalType": "address",
          "name": "",
          "type": "address"
        }
      ],
      "stateMutability": "view",
      "type": "function",
      "constant": true
    },
    {
      "inputs": [
        {
          "internalType": "bool",
          "name": "newState",
          "type": "bool"
        }
      ],
      "name": "pause",
      "outputs": [],
      "stateMutability": "nonpayable",
      "type": "function"
    },
    {
      "inputs": [
        {
          "internalType": "address",
          "name": "from",
          "type": "address"
        },
        {
          "internalType": "address",
          "name": "to",
          "type": "address"
        },
        {
          "internalType": "uint256",
          "name": "tokenId",
          "type": "uint256"
        }
      ],
      "name": "safeTransferFrom",
      "outputs": [],
      "stateMutability": "nonpayable",
      "type": "function"
    },
    {
      "inputs": [
        {
          "internalType": "address",
          "name": "from",
          "type": "address"
        },
        {
          "internalType": "address",
          "name": "to",
          "type": "address"
        },
        {
          "internalType": "uint256",
          "name": "tokenId",
          "type": "uint256"
        },
        {
          "internalType": "bytes",
          "name": "_data",
          "type": "bytes"
        }
      ],
      "name": "safeTransferFrom",
      "outputs": [],
      "stateMutability": "nonpayable",
      "type": "function"
    },
    {
      "inputs": [
        {
          "internalType": "address",
          "name": "to",
          "type": "address"
        },
        {
          "internalType": "bool",
          "name": "approved",
          "type": "bool"
        }
      ],
      "name": "setApprovalForAll",
      "outputs": [],
      "stateMutability": "nonpayable",
      "type": "function"
    },
    {
      "inputs": [
        {
          "internalType": "bytes4",
          "name": "interfaceId",
          "type": "bytes4"
        }
      ],
      "name": "supportsInterface",
      "outputs": [
        {
          "internalType": "bool",
          "name": "",
          "type": "bool"
        }
      ],
      "stateMutability": "view",
      "type": "function",
      "constant": true
    },
    {
      "inputs": [
        {
          "internalType": "uint256",
          "name": "index",
          "type": "uint256"
        }
      ],
      "name": "tokenByIndex",
      "outputs": [
        {
          "internalType": "uint256",
          "name": "",
          "type": "uint256"
        }
      ],
      "stateMutability": "view",
      "type": "function",
      "constant": true
    },
    {
      "inputs": [
        {
          "internalType": "address",
          "name": "owner",
          "type": "address"
        },
        {
          "internalType": "uint256",
          "name": "index",
          "type": "uint256"
        }
      ],
      "name": "tokenOfOwnerByIndex",
      "outputs": [
        {
          "internalType": "uint256",
          "name": "",
          "type": "uint256"
        }
      ],
      "stateMutability": "view",
      "type": "function",
      "constant": true
    },
    {
      "inputs": [
        {
          "internalType": "uint256",
          "name": "tokenId",
          "type": "uint256"
        }
      ],
      "name": "tokenURI",
      "outputs": [
        {
          "internalType": "string",
          "name": "",
          "type": "string"
        }
      ],
      "stateMutability": "view",
      "type": "function",
      "constant": true
    },
    {
      "inputs": [],
      "name": "totalSupply",
      "outputs": [
        {
          "internalType": "uint256",
          "name": "",
          "type": "uint256"
        }
      ],
      "stateMutability": "view",
      "type": "function",
      "constant": true
    },
    {
      "inputs": [
        {
          "internalType": "address",
          "name": "from",
          "type": "address"
        },
        {
          "internalType": "address",
          "name": "to",
          "type": "address"
        },
        {
          "internalType": "uint256",
          "name": "tokenId",
          "type": "uint256"
        }
      ],
      "name": "transferFrom",
      "outputs": [],
      "stateMutability": "nonpayable",
      "type": "function"
    },
    {
      "inputs": [
        {
          "internalType": "address",
          "name": "newOwner",
          "type": "address"
        }
      ],
      "name": "transferOwnership",
      "outputs": [],
      "stateMutability": "nonpayable",
      "type": "function"
    },
    {
      "inputs": [],
      "name": "unpause",
      "outputs": [],
      "stateMutability": "nonpayable",
      "type": "function"
    },
    {
      "inputs": [
        {
          "internalType": "uint256[2]",
          "name": "A",
          "type": "uint256[2]"
        },
        {
          "internalType": "uint256[2][2]",
          "name": "B",
          "type": "uint256[2][2]"
        },
        {
          "internalType": "uint256[2]",
          "name": "C",
          "type": "uint256[2]"
        },
        {
          "internalType": "uint256[2]",
          "name": "input",
          "type": "uint256[2]"
        }
      ],
      "name": "addSolution",
      "outputs": [],
      "stateMutability": "nonpayable",
      "type": "function"
    },
    {
      "inputs": [
        {
          "internalType": "uint256",
          "name": "a",
          "type": "uint256"
        },
        {
          "internalType": "uint256",
          "name": "b",
          "type": "uint256"
        },
        {
          "internalType": "address",
          "name": "to",
          "type": "address"
        }
      ],
      "name": "mintNewNFT",
      "outputs": [],
      "stateMutability": "nonpayable",
      "type": "function"
    }
  ],
  "bytecode": "0x60806040526000600f553480156200001657600080fd5b50604051620045153803806200451583398181016040528101906200003c9190620003d8565b818181816040518060600160405280603f8152602001620044d6603f9139336000806101000a81548173ffffffffffffffffffffffffffffffffffffffff021916908373ffffffffffffffffffffffffffffffffffffffff16021790555060008060146101000a81548160ff021916908315150217905550620000e57f01ffc9a700000000000000000000000000000000000000000000000000000000620001c760201b60201c565b620000fd6380ac58cd60e01b620001c760201b60201c565b6200011563780e9d6360e01b620001c760201b60201c565b82600a90805190602001906200012d9291906200029f565b5081600b9080519060200190620001469291906200029f565b5080600c90805190602001906200015f9291906200029f565b5062000178635b5e139f60e01b620001c760201b60201c565b505050505082600e60006101000a81548173ffffffffffffffffffffffffffffffffffffffff021916908373ffffffffffffffffffffffffffffffffffffffff160217905550505050620006a1565b63ffffffff60e01b817bffffffffffffffffffffffffffffffffffffffffffffffffffffffff1916141562000233576040517f08c379a00000000000000000000000000000000000000000000000000000000081526004016200022a9062000487565b60405180910390fd5b6001806000837bffffffffffffffffffffffffffffffffffffffffffffffffffffffff19167bffffffffffffffffffffffffffffffffffffffffffffffffffffffff1916815260200190815260200160002060006101000a81548160ff02191690831515021790555050565b828054620002ad9062000583565b90600052602060002090601f016020900481019282620002d157600085556200031d565b82601f10620002ec57805160ff19168380011785556200031d565b828001600101855582156200031d579182015b828111156200031c578251825591602001919060010190620002ff565b5b5090506200032c919062000330565b5090565b5b808211156200034b57600081600090555060010162000331565b5090565b6000620003666200036084620004d2565b620004a9565b9050828152602081018484840111156200037f57600080fd5b6200038c8482856200054d565b509392505050565b600081519050620003a58162000687565b92915050565b600082601f830112620003bd57600080fd5b8151620003cf8482602086016200034f565b91505092915050565b600080600060608486031215620003ee57600080fd5b6000620003fe8682870162000394565b935050602084015167ffffffffffffffff8111156200041c57600080fd5b6200042a86828701620003ab565b925050604084015167ffffffffffffffff8111156200044857600080fd5b6200045686828701620003ab565b9150509250925092565b60006200046f601c8362000508565b91506200047c826200065e565b602082019050919050565b60006020820190508181036000830152620004a28162000460565b9050919050565b6000620004b5620004c8565b9050620004c38282620005b9565b919050565b6000604051905090565b600067ffffffffffffffff821115620004f057620004ef6200061e565b5b620004fb826200064d565b9050602081019050919050565b600082825260208201905092915050565b600062000526826200052d565b9050919050565b600073ffffffffffffffffffffffffffffffffffffffff82169050919050565b60005b838110156200056d57808201518184015260208101905062000550565b838111156200057d576000848401525b50505050565b600060028204905060018216806200059c57607f821691505b60208210811415620005b357620005b2620005ef565b5b50919050565b620005c4826200064d565b810181811067ffffffffffffffff82111715620005e657620005e56200061e565b5b80604052505050565b7f4e487b7100000000000000000000000000000000000000000000000000000000600052602260045260246000fd5b7f4e487b7100000000000000000000000000000000000000000000000000000000600052604160045260246000fd5b6000601f19601f8301169050919050565b7f4552433136353a20696e76616c696420696e7465726661636520696400000000600082015250565b620006928162000519565b81146200069e57600080fd5b50565b613e2580620006b16000396000f3fe608060405234801561001057600080fd5b50600436106101585760003560e01c806342842e0e116100c3578063b88d4fde1161007c578063b88d4fde146103d7578063bdc32be0146103f3578063c87b56dd14610411578063e985e9c514610441578063f2fde38b14610471578063f76b44311461048d57610158565b806342842e0e146102f15780634f6ccce71461030d5780636352211e1461033d57806370a082311461036d578063893d20e81461039d578063a22cb465146103bb57610158565b806318160ddd1161011557806318160ddd1461023157806323b872dd1461024f5780632f745c591461026b57806338d470961461029b5780633f4ba83a146102b757806340c10f19146102c157610158565b806301ffc9a71461015d57806302329a291461018d578063081812fc146101a9578063095ea7b3146101d957806315070401146101f557806317d7de7c14610213575b600080fd5b61017760048036038101906101729190612dfd565b6104a9565b60405161018491906133a8565b60405180910390f35b6101a760048036038101906101a29190612dab565b610511565b005b6101c360048036038101906101be9190612e4f565b6105ff565b6040516101d091906132fa565b60405180910390f35b6101f360048036038101906101ee9190612d0a565b610606565b005b6101fd6107b3565b60405161020a91906133c3565b60405180910390f35b61021b610845565b60405161022891906133c3565b60405180910390f35b6102396108d7565b60405161024691906135c5565b60405180910390f35b61026960048036038101906102649190612c04565b6108e4565b005b61028560048036038101906102809190612d0a565b610907565b60405161029291906135c5565b60405180910390f35b6102b560048036038101906102b09190612e78565b6109a7565b005b6102bf610bde565b005b6102db60048036038101906102d69190612d0a565b610d21565b6040516102e891906133a8565b60405180910390f35b61030b60048036038101906103069190612c04565b610e25565b005b61032760048036038101906103229190612e4f565b610e45565b60405161033491906135c5565b60405180910390f35b61035760048036038101906103529190612e4f565b610ea6565b60405161036491906132fa565b60405180910390f35b61038760048036038101906103829190612b9f565b610ead565b60405161039491906135c5565b60405180910390f35b6103a5610efd565b6040516103b291906132fa565b60405180910390f35b6103d560048036038101906103d09190612cce565b610f26565b005b6103f160048036038101906103ec9190612c53565b61105c565b005b6103fb611082565b60405161040891906133c3565b60405180910390f35b61042b60048036038101906104269190612e4f565b611114565b60405161043891906133c3565b60405180910390f35b61045b60048036038101906104569190612bc8565b6111cb565b60405161046891906133a8565b60405180910390f35b61048b60048036038101906104869190612b9f565b61125f565b005b6104a760048036038101906104a29190612d46565b6113da565b005b600060016000837bffffffffffffffffffffffffffffffffffffffffffffffffffffffff19167bffffffffffffffffffffffffffffffffffffffffffffffffffffffff1916815260200190815260200160002060009054906101000a900460ff169050919050565b60008054906101000a900473ffffffffffffffffffffffffffffffffffffffff1673ffffffffffffffffffffffffffffffffffffffff163373ffffffffffffffffffffffffffffffffffffffff161461059f576040517f08c379a000000000000000000000000000000000000000000000000000000000815260040161059690613585565b60405180910390fd5b80600060146101000a81548160ff0219169083151502179055503373ffffffffffffffffffffffffffffffffffffffff167f62e78cea01bee320cd4e420270b5ea74000d11b0c9f74754ebdbfc544b05a25860405160405180910390a250565b6000919050565b600061061182610ea6565b90508073ffffffffffffffffffffffffffffffffffffffff168373ffffffffffffffffffffffffffffffffffffffff161415610682576040517f08c379a000000000000000000000000000000000000000000000000000000000815260040161067990613525565b60405180910390fd5b8073ffffffffffffffffffffffffffffffffffffffff163373ffffffffffffffffffffffffffffffffffffffff1614806106c257506106c181336111cb565b5b610701576040517f08c379a00000000000000000000000000000000000000000000000000000000081526004016106f8906134a5565b60405180910390fd5b826003600084815260200190815260200160002060006101000a81548173ffffffffffffffffffffffffffffffffffffffff021916908373ffffffffffffffffffffffffffffffffffffffff160217905550818373ffffffffffffffffffffffffffffffffffffffff168273ffffffffffffffffffffffffffffffffffffffff167f8c5be1e5ebec7d5bd14f71427d1e84f3dd0314c0f7b2291e5b200ac8c7c3b92560405160405180910390a4505050565b6060600b80546107c2906138ba565b80601f01602080910402602001604051908101604052809291908181526020018280546107ee906138ba565b801561083b5780601f106108105761010080835404028352916020019161083b565b820191906000526020600020905b81548152906001019060200180831161081e57829003601f168201915b5050505050905090565b6060600a8054610854906138ba565b80601f0160208091040260200160405190810160405280929190818152602001828054610880906138ba565b80156108cd5780601f106108a2576101008083540402835291602001916108cd565b820191906000526020600020905b8154815290600101906020018083116108b057829003601f168201915b5050505050905090565b6000600880549050905090565b6108ee338261174a565b6108f757600080fd5b6109028383836117df565b505050565b600061091283610ead565b821061091d57600080fd5b600660008473ffffffffffffffffffffffffffffffffffffffff1673ffffffffffffffffffffffffffffffffffffffff1681526020019081526020016000208281548110610994577f4e487b7100000000000000000000000000000000000000000000000000000000600052603260045260246000fd5b9060005260206000200154905092915050565b600083836040516020016109bc9291906132ce565b604051602081830303815290604052805190602001209050600073ffffffffffffffffffffffffffffffffffffffff166010600083815260200190815260200160002060010160009054906101000a900473ffffffffffffffffffffffffffffffffffffffff1673ffffffffffffffffffffffffffffffffffffffff161415610a7a576040517f08c379a0000000000000000000000000000000000000000000000000000000008152600401610a7190613405565b60405180910390fd5b600015156010600083815260200190815260200160002060010160149054906101000a900460ff16151514610ae4576040517f08c379a0000000000000000000000000000000000000000000000000000000008152600401610adb906135a5565b60405180910390fd5b3373ffffffffffffffffffffffffffffffffffffffff166010600083815260200190815260200160002060010160009054906101000a900473ffffffffffffffffffffffffffffffffffffffff1673ffffffffffffffffffffffffffffffffffffffff1614610b88576040517f08c379a0000000000000000000000000000000000000000000000000000000008152600401610b7f90613505565b60405180910390fd5b610ba8826010600084815260200190815260200160002060000154610d21565b5060016010600083815260200190815260200160002060010160146101000a81548160ff02191690831515021790555050505050565b60008054906101000a900473ffffffffffffffffffffffffffffffffffffffff1673ffffffffffffffffffffffffffffffffffffffff163373ffffffffffffffffffffffffffffffffffffffff1614610c6c576040517f08c379a0000000000000000000000000000000000000000000000000000000008152600401610c6390613585565b60405180910390fd5b60011515600060149054906101000a900460ff16151514610cc2576040517f08c379a0000000000000000000000000000000000000000000000000000000008152600401610cb990613565565b60405180910390fd5b60008060146101000a81548160ff0219169083151502179055503373ffffffffffffffffffffffffffffffffffffffff167f5db9ee0a495bf2e6ff9c91a7834c1ba4fdd244a5e8aa4e537bd38aeae4b073aa60405160405180910390a2565b60008060009054906101000a900473ffffffffffffffffffffffffffffffffffffffff1673ffffffffffffffffffffffffffffffffffffffff163373ffffffffffffffffffffffffffffffffffffffff1614610db2576040517f08c379a0000000000000000000000000000000000000000000000000000000008152600401610da990613585565b60405180910390fd5b60001515600060149054906101000a900460ff16151514610e08576040517f08c379a0000000000000000000000000000000000000000000000000000000008152600401610dff90613445565b60405180910390fd5b610e128383611a0e565b610e1b82611a2f565b6001905092915050565b610e408383836040518060200160405280600081525061105c565b505050565b6000610e4f6108d7565b8210610e5a57600080fd5b60088281548110610e94577f4e487b7100000000000000000000000000000000000000000000000000000000600052603260045260246000fd5b90600052602060002001549050919050565b6000919050565b6000610ef6600460008473ffffffffffffffffffffffffffffffffffffffff1673ffffffffffffffffffffffffffffffffffffffff168152602001908152602001600020611b3d565b9050919050565b60008060009054906101000a900473ffffffffffffffffffffffffffffffffffffffff16905090565b3373ffffffffffffffffffffffffffffffffffffffff168273ffffffffffffffffffffffffffffffffffffffff161415610f5f57600080fd5b80600560003373ffffffffffffffffffffffffffffffffffffffff1673ffffffffffffffffffffffffffffffffffffffff16815260200190815260200160002060008473ffffffffffffffffffffffffffffffffffffffff1673ffffffffffffffffffffffffffffffffffffffff16815260200190815260200160002060006101000a81548160ff0219169083151502179055508173ffffffffffffffffffffffffffffffffffffffff163373ffffffffffffffffffffffffffffffffffffffff167f17307eab39ab6107e8899845ad3d59bd9653f200f220920489ca2b5937696c318360405161105091906133a8565b60405180910390a35050565b6110678484846108e4565b61107384848484611b4b565b61107c57600080fd5b50505050565b6060600c8054611091906138ba565b80601f01602080910402602001604051908101604052809291908181526020018280546110bd906138ba565b801561110a5780601f106110df5761010080835404028352916020019161110a565b820191906000526020600020905b8154815290600101906020018083116110ed57829003601f168201915b5050505050905090565b606061111f82611c62565b61112857600080fd5b600d60008381526020019081526020016000208054611146906138ba565b80601f0160208091040260200160405190810160405280929190818152602001828054611172906138ba565b80156111bf5780601f10611194576101008083540402835291602001916111bf565b820191906000526020600020905b8154815290600101906020018083116111a257829003601f168201915b50505050509050919050565b6000600560008473ffffffffffffffffffffffffffffffffffffffff1673ffffffffffffffffffffffffffffffffffffffff16815260200190815260200160002060008373ffffffffffffffffffffffffffffffffffffffff1673ffffffffffffffffffffffffffffffffffffffff16815260200190815260200160002060009054906101000a900460ff16905092915050565b60008054906101000a900473ffffffffffffffffffffffffffffffffffffffff1673ffffffffffffffffffffffffffffffffffffffff163373ffffffffffffffffffffffffffffffffffffffff16146112ed576040517f08c379a00000000000000000000000000000000000000000000000000000000081526004016112e490613585565b60405180910390fd5b600073ffffffffffffffffffffffffffffffffffffffff168173ffffffffffffffffffffffffffffffffffffffff16141561135d576040517f08c379a000000000000000000000000000000000000000000000000000000000815260040161135490613465565b60405180910390fd5b8073ffffffffffffffffffffffffffffffffffffffff1660008054906101000a900473ffffffffffffffffffffffffffffffffffffffff1673ffffffffffffffffffffffffffffffffffffffff167f0d18b5fd22306e373229b9439188228edca81207d1667f604daf6cef8aa3ee6760405160405180910390a350565b600081600060028110611416577f4e487b7100000000000000000000000000000000000000000000000000000000600052603260045260246000fd5b602002015182600160028110611455577f4e487b7100000000000000000000000000000000000000000000000000000000600052603260045260246000fd5b602002015160405160200161146b9291906132ce565b604051602081830303815290604052805190602001209050600073ffffffffffffffffffffffffffffffffffffffff166010600083815260200190815260200160002060010160009054906101000a900473ffffffffffffffffffffffffffffffffffffffff1673ffffffffffffffffffffffffffffffffffffffff1614611528576040517f08c379a000000000000000000000000000000000000000000000000000000000815260040161151f90613425565b60405180910390fd5b6000600e60009054906101000a900473ffffffffffffffffffffffffffffffffffffffff1673ffffffffffffffffffffffffffffffffffffffff1663621e9ec0878787876040518563ffffffff1660e01b815260040161158b9493929190613361565b60206040518083038186803b1580156115a357600080fd5b505afa1580156115b7573d6000803e3d6000fd5b505050506040513d601f19601f820116820180604052508101906115db9190612dd4565b90508061161d576040517f08c379a0000000000000000000000000000000000000000000000000000000008152600401611614906133e5565b60405180910390fd5b6040518060600160405280600f5481526020013373ffffffffffffffffffffffffffffffffffffffff16815260200160001515815250601060008481526020019081526020016000206000820151816000015560208201518160010160006101000a81548173ffffffffffffffffffffffffffffffffffffffff021916908373ffffffffffffffffffffffffffffffffffffffff16021790555060408201518160010160146101000a81548160ff0219169083151502179055509050503373ffffffffffffffffffffffffffffffffffffffff167f078793128cefb19aac38a33f9e5df39f67716907f6d747e8065545699e0b2b8d600f5460405161172291906135c5565b60405180910390a2600f600081548092919061173d9061391d565b9190505550505050505050565b60008061175683610ea6565b90508073ffffffffffffffffffffffffffffffffffffffff168473ffffffffffffffffffffffffffffffffffffffff1614806117c557508373ffffffffffffffffffffffffffffffffffffffff166117ad846105ff565b73ffffffffffffffffffffffffffffffffffffffff16145b806117d657506117d581856111cb565b5b91505092915050565b6117e881610ea6565b73ffffffffffffffffffffffffffffffffffffffff168373ffffffffffffffffffffffffffffffffffffffff1614611855576040517f08c379a000000000000000000000000000000000000000000000000000000000815260040161184c906134e5565b60405180910390fd5b600073ffffffffffffffffffffffffffffffffffffffff168273ffffffffffffffffffffffffffffffffffffffff1614156118c5576040517f08c379a00000000000000000000000000000000000000000000000000000000081526004016118bc90613545565b60405180910390fd5b6118ce81611cd4565b611915600460008573ffffffffffffffffffffffffffffffffffffffff1673ffffffffffffffffffffffffffffffffffffffff168152602001908152602001600020611d92565b61195c600460008473ffffffffffffffffffffffffffffffffffffffff1673ffffffffffffffffffffffffffffffffffffffff168152602001908152602001600020611db5565b816002600083815260200190815260200160002060006101000a81548173ffffffffffffffffffffffffffffffffffffffff021916908373ffffffffffffffffffffffffffffffffffffffff160217905550808273ffffffffffffffffffffffffffffffffffffffff168473ffffffffffffffffffffffffffffffffffffffff167fddf252ad1be2c89b69c2b068fc378daa952ba7f163c4a11628f55a4df523b3ef60405160405180910390a4505050565b611a188282611dd4565b611a228282611fdf565b611a2b816120a3565b5050565b611a3881611c62565b611a77576040517f08c379a0000000000000000000000000000000000000000000000000000000008152600401611a6e90613485565b60405180910390fd5b611b13600c8054611a87906138ba565b80601f0160208091040260200160405190810160405280929190818152602001828054611ab3906138ba565b8015611b005780601f10611ad557610100808354040283529160200191611b00565b820191906000526020600020905b815481529060010190602001808311611ae357829003601f168201915b5050505050611b0e836120ec565b6122a8565b600d60008381526020019081526020016000209080519060200190611b39929190612902565b5050565b600081600001549050919050565b6000611b6c8473ffffffffffffffffffffffffffffffffffffffff166122ec565b611b795760019050611c5a565b60008473ffffffffffffffffffffffffffffffffffffffff1663150b7a02338887876040518563ffffffff1660e01b8152600401611bba9493929190613315565b602060405180830381600087803b158015611bd457600080fd5b505af1158015611be8573d6000803e3d6000fd5b505050506040513d601f19601f82011682018060405250810190611c0c9190612e26565b905063150b7a0260e01b7bffffffffffffffffffffffffffffffffffffffffffffffffffffffff1916817bffffffffffffffffffffffffffffffffffffffffffffffffffffffff1916149150505b949350505050565b6000806002600084815260200190815260200160002060009054906101000a900473ffffffffffffffffffffffffffffffffffffffff169050600073ffffffffffffffffffffffffffffffffffffffff168173ffffffffffffffffffffffffffffffffffffffff161415915050919050565b600073ffffffffffffffffffffffffffffffffffffffff166003600083815260200190815260200160002060009054906101000a900473ffffffffffffffffffffffffffffffffffffffff1673ffffffffffffffffffffffffffffffffffffffff1614611d8f5760006003600083815260200190815260200160002060006101000a81548173ffffffffffffffffffffffffffffffffffffffff021916908373ffffffffffffffffffffffffffffffffffffffff1602179055505b50565b611daa6001826000015461233790919063ffffffff16565b816000018190555050565b6001816000016000828254611dca919061371f565b9250508190555050565b600073ffffffffffffffffffffffffffffffffffffffff166002600083815260200190815260200160002060009054906101000a900473ffffffffffffffffffffffffffffffffffffffff1673ffffffffffffffffffffffffffffffffffffffff1614611e76576040517f08c379a0000000000000000000000000000000000000000000000000000000008152600401611e6d906134c5565b60405180910390fd5b600073ffffffffffffffffffffffffffffffffffffffff168273ffffffffffffffffffffffffffffffffffffffff161415611ee6576040517f08c379a0000000000000000000000000000000000000000000000000000000008152600401611edd90613545565b60405180910390fd5b816002600083815260200190815260200160002060006101000a81548173ffffffffffffffffffffffffffffffffffffffff021916908373ffffffffffffffffffffffffffffffffffffffff160217905550611f7f600460008473ffffffffffffffffffffffffffffffffffffffff1673ffffffffffffffffffffffffffffffffffffffff168152602001908152602001600020611db5565b808273ffffffffffffffffffffffffffffffffffffffff16600073ffffffffffffffffffffffffffffffffffffffff167fddf252ad1be2c89b69c2b068fc378daa952ba7f163c4a11628f55a4df523b3ef60405160405180910390a45050565b600660008373ffffffffffffffffffffffffffffffffffffffff1673ffffffffffffffffffffffffffffffffffffffff168152602001908152602001600020805490506007600083815260200190815260200160002081905550600660008373ffffffffffffffffffffffffffffffffffffffff1673ffffffffffffffffffffffffffffffffffffffff1681526020019081526020016000208190806001815401808255809150506001900390600052602060002001600090919091909150555050565b6008805490506009600083815260200190815260200160002081905550600881908060018154018082558091505060019003906000526020600020016000909190919091505550565b60606000821415612134576040518060400160405280600181526020017f300000000000000000000000000000000000000000000000000000000000000081525090506122a3565b600082905060005b6000821461216657808061214f9061391d565b915050600a8261215f9190613775565b915061213c565b60008167ffffffffffffffff8111156121a8577f4e487b7100000000000000000000000000000000000000000000000000000000600052604160045260246000fd5b6040519080825280601f01601f1916602001820160405280156121da5781602001600182028036833780820191505090505b50905060006001836121ec91906137a6565b90505b6000861461229b57600a866122049190613970565b6030612210919061371f565b60f81b82828061221f90613890565b935081518110612258577f4e487b7100000000000000000000000000000000000000000000000000000000600052603260045260246000fd5b60200101907effffffffffffffffffffffffffffffffffffffffffffffffffffffffffffff1916908160001a905350600a866122949190613775565b95506121ef565b819450505050505b919050565b60606122e48383604051806020016040528060008152506040518060200160405280600081525060405180602001604052806000815250612381565b905092915050565b60008060007fc5d2460186f7233c927e7db2dcc703c0e500b653ca82273b7bfad8045d85a47060001b9050833f915080821415801561232e57506000801b8214155b92505050919050565b600061237983836040518060400160405280601e81526020017f536166654d6174683a207375627472616374696f6e206f766572666c6f77000081525061289e565b905092915050565b6060600086905060008690506000869050600086905060008690506000815183518551875189516123b2919061371f565b6123bc919061371f565b6123c6919061371f565b6123d0919061371f565b67ffffffffffffffff81111561240f577f4e487b7100000000000000000000000000000000000000000000000000000000600052604160045260246000fd5b6040519080825280601f01601f1916602001820160405280156124415781602001600182028036833780820191505090505b5090506000819050600080600090505b885181101561252557888181518110612493577f4e487b7100000000000000000000000000000000000000000000000000000000600052603260045260246000fd5b602001015160f81c60f81b8383806124aa9061391d565b9450815181106124e3577f4e487b7100000000000000000000000000000000000000000000000000000000600052603260045260246000fd5b60200101907effffffffffffffffffffffffffffffffffffffffffffffffffffffffffffff1916908160001a905350808061251d9061391d565b915050612451565b600090505b87518110156125fe5787818151811061256c577f4e487b7100000000000000000000000000000000000000000000000000000000600052603260045260246000fd5b602001015160f81c60f81b8383806125839061391d565b9450815181106125bc577f4e487b7100000000000000000000000000000000000000000000000000000000600052603260045260246000fd5b60200101907effffffffffffffffffffffffffffffffffffffffffffffffffffffffffffff1916908160001a90535080806125f69061391d565b91505061252a565b600090505b86518110156126d757868181518110612645577f4e487b7100000000000000000000000000000000000000000000000000000000600052603260045260246000fd5b602001015160f81c60f81b83838061265c9061391d565b945081518110612695577f4e487b7100000000000000000000000000000000000000000000000000000000600052603260045260246000fd5b60200101907effffffffffffffffffffffffffffffffffffffffffffffffffffffffffffff1916908160001a90535080806126cf9061391d565b915050612603565b600090505b85518110156127b05785818151811061271e577f4e487b7100000000000000000000000000000000000000000000000000000000600052603260045260246000fd5b602001015160f81c60f81b8383806127359061391d565b94508151811061276e577f4e487b7100000000000000000000000000000000000000000000000000000000600052603260045260246000fd5b60200101907effffffffffffffffffffffffffffffffffffffffffffffffffffffffffffff1916908160001a90535080806127a89061391d565b9150506126dc565b600090505b8451811015612889578481815181106127f7577f4e487b7100000000000000000000000000000000000000000000000000000000600052603260045260246000fd5b602001015160f81c60f81b83838061280e9061391d565b945081518110612847577f4e487b7100000000000000000000000000000000000000000000000000000000600052603260045260246000fd5b60200101907effffffffffffffffffffffffffffffffffffffffffffffffffffffffffffff1916908160001a90535080806128819061391d565b9150506127b5565b82995050505050505050505095945050505050565b60008383111582906128e6576040517f08c379a00000000000000000000000000000000000000000000000000000000081526004016128dd91906133c3565b60405180910390fd5b50600083856128f591906137a6565b9050809150509392505050565b82805461290e906138ba565b90600052602060002090601f0160209004810192826129305760008555612977565b82601f1061294957805160ff1916838001178555612977565b82800160010185558215612977579182015b8281111561297657825182559160200191906001019061295b565b5b5090506129849190612988565b5090565b5b808211156129a1576000816000905550600101612989565b5090565b60006129b86129b384613605565b6135e0565b905080828560408602820111156129ce57600080fd5b60005b858110156129fe57816129e48882612ae5565b8452602084019350604083019250506001810190506129d1565b5050509392505050565b6000612a1b612a168461362b565b6135e0565b90508082856020860282011115612a3157600080fd5b60005b85811015612a615781612a478882612b8a565b845260208401935060208301925050600181019050612a34565b5050509392505050565b6000612a7e612a7984613651565b6135e0565b905082815260208101848484011115612a9657600080fd5b612aa184828561384e565b509392505050565b600081359050612ab881613d93565b92915050565b600082601f830112612acf57600080fd5b6002612adc8482856129a5565b91505092915050565b600082601f830112612af657600080fd5b6002612b03848285612a08565b91505092915050565b600081359050612b1b81613daa565b92915050565b600081519050612b3081613daa565b92915050565b600081359050612b4581613dc1565b92915050565b600081519050612b5a81613dc1565b92915050565b600082601f830112612b7157600080fd5b8135612b81848260208601612a6b565b91505092915050565b600081359050612b9981613dd8565b92915050565b600060208284031215612bb157600080fd5b6000612bbf84828501612aa9565b91505092915050565b60008060408385031215612bdb57600080fd5b6000612be985828601612aa9565b9250506020612bfa85828601612aa9565b9150509250929050565b600080600060608486031215612c1957600080fd5b6000612c2786828701612aa9565b9350506020612c3886828701612aa9565b9250506040612c4986828701612b8a565b9150509250925092565b60008060008060808587031215612c6957600080fd5b6000612c7787828801612aa9565b9450506020612c8887828801612aa9565b9350506040612c9987828801612b8a565b925050606085013567ffffffffffffffff811115612cb657600080fd5b612cc287828801612b60565b91505092959194509250565b60008060408385031215612ce157600080fd5b6000612cef85828601612aa9565b9250506020612d0085828601612b0c565b9150509250929050565b60008060408385031215612d1d57600080fd5b6000612d2b85828601612aa9565b9250506020612d3c85828601612b8a565b9150509250929050565b6000806000806101408587031215612d5d57600080fd5b6000612d6b87828801612ae5565b9450506040612d7c87828801612abe565b93505060c0612d8d87828801612ae5565b925050610100612d9f87828801612ae5565b91505092959194509250565b600060208284031215612dbd57600080fd5b6000612dcb84828501612b0c565b91505092915050565b600060208284031215612de657600080fd5b6000612df484828501612b21565b91505092915050565b600060208284031215612e0f57600080fd5b6000612e1d84828501612b36565b91505092915050565b600060208284031215612e3857600080fd5b6000612e4684828501612b4b565b91505092915050565b600060208284031215612e6157600080fd5b6000612e6f84828501612b8a565b91505092915050565b600080600060608486031215612e8d57600080fd5b6000612e9b86828701612b8a565b9350506020612eac86828701612b8a565b9250506040612ebd86828701612aa9565b9150509250925092565b6000612ed38383612f5d565b60408301905092915050565b6000612eeb8383613299565b60208301905092915050565b612f00816137da565b82525050565b612f0f81613696565b612f1981846136dc565b9250612f2482613682565b8060005b83811015612f55578151612f3c8782612ec7565b9650612f47836136c2565b925050600181019050612f28565b505050505050565b612f66816136a1565b612f7081846136e7565b9250612f7b8261368c565b8060005b83811015612fac578151612f938782612edf565b9650612f9e836136cf565b925050600181019050612f7f565b505050505050565b612fbd816136a1565b612fc781846136f2565b9250612fd28261368c565b8060005b83811015613003578151612fea8782612edf565b9650612ff5836136cf565b925050600181019050612fd6565b505050505050565b613014816137ec565b82525050565b6000613025826136ac565b61302f81856136fd565b935061303f81856020860161385d565b61304881613a5d565b840191505092915050565b600061305e826136b7565b613068818561370e565b935061307881856020860161385d565b61308181613a5d565b840191505092915050565b6000613099601e8361370e565b91506130a482613a6e565b602082019050919050565b60006130bc60178361370e565b91506130c782613a97565b602082019050919050565b60006130df60178361370e565b91506130ea82613ac0565b602082019050919050565b6000613102601d8361370e565b915061310d82613ae9565b602082019050919050565b600061312560138361370e565b915061313082613b12565b602082019050919050565b6000613148601a8361370e565b915061315382613b3b565b602082019050919050565b600061316b602b8361370e565b915061317682613b64565b604082019050919050565b600061318e60148361370e565b915061319982613bb3565b602082019050919050565b60006131b160218361370e565b91506131bc82613bdc565b604082019050919050565b60006131d460308361370e565b91506131df82613c2b565b604082019050919050565b60006131f7601a8361370e565b915061320282613c7a565b602082019050919050565b600061321a60128361370e565b915061322582613ca3565b602082019050919050565b600061323d601b8361370e565b915061324882613ccc565b602082019050919050565b6000613260602c8361370e565b915061326b82613cf5565b604082019050919050565b600061328360268361370e565b915061328e82613d44565b604082019050919050565b6132a281613844565b82525050565b6132b181613844565b82525050565b6132c86132c382613844565b613966565b82525050565b60006132da82856132b7565b6020820191506132ea82846132b7565b6020820191508190509392505050565b600060208201905061330f6000830184612ef7565b92915050565b600060808201905061332a6000830187612ef7565b6133376020830186612ef7565b61334460408301856132a8565b8181036060830152613356818461301a565b905095945050505050565b6000610140820190506133776000830187612fb4565b6133846040830186612f06565b61339160c0830185612fb4565b61339f610100830184612fb4565b95945050505050565b60006020820190506133bd600083018461300b565b92915050565b600060208201905081810360008301526133dd8184613053565b905092915050565b600060208201905081810360008301526133fe8161308c565b9050919050565b6000602082019050818103600083015261341e816130af565b9050919050565b6000602082019050818103600083015261343e816130d2565b9050919050565b6000602082019050818103600083015261345e816130f5565b9050919050565b6000602082019050818103600083015261347e81613118565b9050919050565b6000602082019050818103600083015261349e8161313b565b9050919050565b600060208201905081810360008301526134be8161315e565b9050919050565b600060208201905081810360008301526134de81613181565b9050919050565b600060208201905081810360008301526134fe816131a4565b9050919050565b6000602082019050818103600083015261351e816131c7565b9050919050565b6000602082019050818103600083015261353e816131ea565b9050919050565b6000602082019050818103600083015261355e8161320d565b9050919050565b6000602082019050818103600083015261357e81613230565b9050919050565b6000602082019050818103600083015261359e81613253565b9050919050565b600060208201905081810360008301526135be81613276565b9050919050565b60006020820190506135da60008301846132a8565b92915050565b60006135ea6135fb565b90506135f682826138ec565b919050565b6000604051905090565b600067ffffffffffffffff8211156136205761361f613a2e565b5b602082029050919050565b600067ffffffffffffffff82111561364657613645613a2e565b5b602082029050919050565b600067ffffffffffffffff82111561366c5761366b613a2e565b5b61367582613a5d565b9050602081019050919050565b6000819050919050565b6000819050919050565b600060029050919050565b600060029050919050565b600081519050919050565b600081519050919050565b6000602082019050919050565b6000602082019050919050565b600081905092915050565b600081905092915050565b600081905092915050565b600082825260208201905092915050565b600082825260208201905092915050565b600061372a82613844565b915061373583613844565b9250827fffffffffffffffffffffffffffffffffffffffffffffffffffffffffffffffff0382111561376a576137696139a1565b5b828201905092915050565b600061378082613844565b915061378b83613844565b92508261379b5761379a6139d0565b5b828204905092915050565b60006137b182613844565b91506137bc83613844565b9250828210156137cf576137ce6139a1565b5b828203905092915050565b60006137e582613824565b9050919050565b60008115159050919050565b60007fffffffff0000000000000000000000000000000000000000000000000000000082169050919050565b600073ffffffffffffffffffffffffffffffffffffffff82169050919050565b6000819050919050565b82818337600083830152505050565b60005b8381101561387b578082015181840152602081019050613860565b8381111561388a576000848401525b50505050565b600061389b82613844565b915060008214156138af576138ae6139a1565b5b600182039050919050565b600060028204905060018216806138d257607f821691505b602082108114156138e6576138e56139ff565b5b50919050565b6138f582613a5d565b810181811067ffffffffffffffff8211171561391457613913613a2e565b5b80604052505050565b600061392882613844565b91507fffffffffffffffffffffffffffffffffffffffffffffffffffffffffffffffff82141561395b5761395a6139a1565b5b600182019050919050565b6000819050919050565b600061397b82613844565b915061398683613844565b925082613996576139956139d0565b5b828206905092915050565b7f4e487b7100000000000000000000000000000000000000000000000000000000600052601160045260246000fd5b7f4e487b7100000000000000000000000000000000000000000000000000000000600052601260045260246000fd5b7f4e487b7100000000000000000000000000000000000000000000000000000000600052602260045260246000fd5b7f4e487b7100000000000000000000000000000000000000000000000000000000600052604160045260246000fd5b6000601f19601f8301169050919050565b7f536f6c7574696f6e20636f756c64206e6f742062652076657269666965640000600082015250565b7f536f6c7574696f6e20646f6573206e6f74206578697374000000000000000000600082015250565b7f536f6c7574696f6e2065786973747320616c7265616479000000000000000000600082015250565b7f436f6e7472616374206e6565647320746f20626520756e706175736564000000600082015250565b7f4e6f7420612076616c6964206164647265737300000000000000000000000000600082015250565b7f54686520746f6b656e496420646f6573206e6f74206578697374000000000000600082015250565b7f43616c6c6572206973206e6f7420617574686f72697a656420616761696e737460008201527f207468697320746f6b656e000000000000000000000000000000000000000000602082015250565b7f546f6b656e2065786973747320616c7265616479000000000000000000000000600082015250565b7f4f6e6c7920746f6b656e206f776e65722063616e20706572666f726d2074686960008201527f7300000000000000000000000000000000000000000000000000000000000000602082015250565b7f4f6e6c7920736f6c7574696f6e20616464726573732063616e2075736520697460008201527f20746f206d696e74206120746f6b656e00000000000000000000000000000000602082015250565b7f43616e6e6f7420617070726f766520746f20796f757273656c66000000000000600082015250565b7f496e76616c696420746f20616464726573730000000000000000000000000000600082015250565b7f436f6e7472616374206e6565647320746f206265207061757365640000000000600082015250565b7f4f6e6c7920636f6e74726163742773206f776e65722063616e2063616c6c207460008201527f6869732066756e6374696f6e0000000000000000000000000000000000000000602082015250565b7f546f6b656e20616c7265616479206d696e74656420666f72207468697320736f60008201527f6c7574696f6e0000000000000000000000000000000000000000000000000000602082015250565b613d9c816137da565b8114613da757600080fd5b50565b613db3816137ec565b8114613dbe57600080fd5b50565b613dca816137f8565b8114613dd557600080fd5b50565b613de181613844565b8114613dec57600080fd5b5056fea264697066735822122026e21cffb03a6b5bbd7f331f565169942b1b55676dd0a200a747a9c35f1434bb64736f6c6343000801003368747470733a2f2f73332d75732d776573742d322e616d617a6f6e6177732e636f6d2f756461636974792d626c6f636b636861696e2f63617073746f6e652f",
  "immutableReferences": {},
  "source": "// SPDX-License-Identifier: LGPL-3.0-only\n// This file is LGPL3 Licensed\npragma solidity ^0.8.1;\n\nimport \"./ERC721MintableComplete.sol\";\nimport \"./Verifier.sol\";\n\n// TODO define another contract named SolnSquareVerifier that inherits from your ERC721Mintable class\ncontract SolnSquareVerifier is ERC721MintableComplete {\n    // TODO define a contract call to the zokrates generated solidity contract <Verifier> or <renamedVerifier>\n    Verifier private verifierContract;\n\n    constructor(\n        address verifierAddress,\n        string memory name,\n        string memory symbol\n    ) ERC721MintableComplete(name, symbol) {\n        verifierContract = Verifier(verifierAddress);\n    }\n\n    // TODO define a solutions struct that can hold an index & an address\n    struct Solution {\n        uint256 solutionIndex;\n        address solutionAddress;\n        bool minted; //flag to indicate if this solution has been used in token minting\n    }\n\n    // TODO define an array of the above struct\n    // Solution[] private solutions;\n    uint256 numberOfSolutions = 0;\n\n    // TODO define a mapping to store unique solutions submitted\n    mapping(bytes32 => Solution) solutions;\n\n    // TODO Create an event to emit when a solution is added\n    event SolutionAdded(uint256 solutionIndex, address indexed solutionAddress);\n\n    // TODO Create a function to add the solutions to the array and emit the event\n    function addSolution(\n        uint256[2] memory A,\n        uint256[2][2] memory B,\n        uint256[2] memory C,\n        uint256[2] memory input\n    ) public {\n        bytes32 solutionHash = keccak256(abi.encodePacked(input[0], input[1]));\n        require(\n            solutions[solutionHash].solutionAddress == address(0),\n            \"Solution exists already\"\n        );\n\n        bool verified = verifierContract.verifyTx(A, B, C, input);\n        require(verified, \"Solution could not be verified\");\n\n        solutions[solutionHash] = Solution(\n            numberOfSolutions,\n            msg.sender,\n            false\n        );\n        //solutions.push(solution);\n        emit SolutionAdded(numberOfSolutions, msg.sender);\n        numberOfSolutions++;\n    }\n\n    // TODO Create a function to mint new NFT only after the solution has been verified\n    //  - make sure the solution is unique (has not been used before)\n    //  - make sure you handle metadata as well as tokenSuplly\n    function mintNewNFT(\n        uint256 a,\n        uint256 b,\n        address to\n    ) public {\n        bytes32 solutionHash = keccak256(abi.encodePacked(a, b));\n        require(\n            solutions[solutionHash].solutionAddress != address(0),\n            \"Solution does not exist\"\n        );\n        require(\n            solutions[solutionHash].minted == false,\n            \"Token already minted for this solution\"\n        );\n        require(\n            solutions[solutionHash].solutionAddress == msg.sender,\n            \"Only solution address can use it to mint a token\"\n        );\n        super.mint(to, solutions[solutionHash].solutionIndex);\n        solutions[solutionHash].minted = true;\n    }\n}\n",
  "sourcePath": "/media/indigo/backup/AXEL/Personal/Tutorials/blockchain-capstone/Blockchain-Capstone/eth-contracts/contracts/SolnSquareVerifier.sol",
  "compiler": {
    "name": "solc",
    "version": "0.8.1+commit.df193b15.Emscripten.clang"
  },
  "schemaVersion": "3.3.3",
  "updatedAt": "2021-09-30T23:15:50.709Z",
  "networkType": "ethereum",
  "devdoc": {
    "kind": "dev",
    "methods": {
      "isApprovedForAll(address,address)": {
        "details": "Tells whether an operator is approved by a given owner",
        "params": {
          "operator": "operator address which you want to query the approval of",
          "owner": "owner address which you want to query the approval of"
        },
        "returns": {
          "_0": "bool whether the given operator is approved by the given owner"
        }
      },
      "setApprovalForAll(address,bool)": {
        "details": "Sets or unsets the approval of a given operator An operator is allowed to transfer all tokens of the sender on their behalf",
        "params": {
          "approved": "representing the status of the approval to be set",
          "to": "operator address to set the approval"
        }
      },
      "supportsInterface(bytes4)": {
        "details": "See {IERC165-supportsInterface}. Time complexity O(1), guaranteed to always use less than 30 000 gas."
      },
      "tokenByIndex(uint256)": {
        "details": "Gets the token ID at a given index of all the tokens in this contract Reverts if the index is greater or equal to the total number of tokens",
        "params": {
          "index": "uint256 representing the index to be accessed of the tokens list"
        },
        "returns": {
          "_0": "uint256 token ID at the given index of the tokens list"
        }
      },
      "tokenOfOwnerByIndex(address,uint256)": {
        "details": "Gets the token ID at a given index of the tokens list of the requested owner",
        "params": {
          "index": "uint256 representing the index to be accessed of the requested tokens list",
          "owner": "address owning the tokens list to be accessed"
        },
        "returns": {
          "_0": "uint256 token ID at the given index of the tokens list owned by the requested address"
        }
      },
      "totalSupply()": {
        "details": "Gets the total amount of tokens stored by the contract",
        "returns": {
          "_0": "uint256 representing the total amount of tokens"
        }
      }
    },
    "version": 1
  },
  "userdoc": {
    "kind": "user",
    "methods": {},
    "version": 1
  }
}